S01100004C65732031204237612E73726563A4
S113000045C0000058C0000056C0000054C00000A5
S113001052C0000050C000004EC000004CC00000A0
S11300204AC0000048C0000046C0000044C00000B0
S113003042C0000040C000003EC000003CC00000C0
S11300403AC0000038C0000036C0000034C00000D0
S113005032C0000030C000002EC000002CC00000E0
S11300602AC0000028C0000026C0000024C00000F0
S113007022C0000020C000001EC000001CC0000000
S11300801AC0000018C0000016C0000011241FBED2
S1130090CFEFD0E1DEBFCDBF11E0A0E0B1E0E6EDEF
S11300A0F2E000E00BBF02C007900D92A432B1074A
S11300B0D9F7B8D00EC1A4CF181619066CF420E0F5
S11300C030E0EFECF7E03197F1F700C000002F5F6C
S11300D03F4F82179307A9F70895CF93DF93DC016D
S11300E080910001FD01BD016A5F7F4F92819130D3
S11300F021F54181481741F0C0E0D1E021E030E032
S11301009F81941314C002C020E030E0F901EE0F87
S1130110FF1FEE0FFF1FEE0FFF1FE21BF30BE0505C
S1130120FF4F87E001900D928A95E1F70AC02F5F97
S11301303F4F27962530310519F73296E617F70712
S1130140A9F6DF91CF910895CF93DF93DC018091DD
S11301500001FD01BD016A5F7F4F9281923021F55C
S11301604181481741F0C0E0D1E021E030E09F81B7
S1130170941314C002C020E030E0F901EE0FFF1F19
S1130180EE0FFF1FEE0FFF1FE21BF30BE050FF4FBC
S113019087E001900D928A95E1F70AC02F5F3F4FE7
S11301A027962530310519F73296E617F707A9F691
S11301B0DF91CF910895CF93DF93DC01809100010B
S11301C0FD01BD016A5F7F4F9281933021F541812A
S11301D0481741F0C0E0D1E021E030E09F81941362
S11301E014C002C020E030E0F901EE0FFF1FEE0F53
S11301F0FF1FEE0FFF1FE21BF30BE050FF4F87E0E2
S113020001900D928A95E1F70AC02F5F3F4F279620
S11302102530310519F73296E617F707A9F6DF916D
S1130220CF910895CF93DF93CDB7DEB727970FB65D
S1130230F894DEBF0FBECDBF8FEF82B987E0E0E058
S1130240F1E0DE01119601900D928A95E1F7CE015D
S1130250019643DF00E011E06894CC24C2F868946E
S1130260DD24D1F8EE24E394FF24FA94859B04C0A2
S1130270CE01019632DF0BC0869B04C0CE010196ED
S113028063DF05C0879B03C0CE01019694DF89819B
S1130290F801948D891302C0F3B817C0F801908156
S11302A0891302C013B811C0F8019781891302C0E1
S11302B0E3B80BC0F8019685891302C0D3B805C012
S11302C0F8019589891301C0C3B884E690E0F4DE8F
S10902D0CDCFF894FFCF2E
S11302D601020203010000020301010300000301FD
S11302E603040100000401030501050205010300DE
S10702F60000000000
S9030000FC
