:100000000C94F7060C9400000C9400000C94000073
:100010000C9400000C9400000C9400000C94000060
:100020000C9400000C9400000C9400000C94000050
:100030000C9400000C9400000C9400000C94000040
:100040000C9400000C9400000C9400000C94000030
:100050000C9400000C9400000C9400000C94000020
:100060000C9400000C9400000C9400000C94000010
:100070000C9400000C9400000C9400000C94000000
:0C0080000C9400000C9400000C94000094
:100DEE00BFEFBDBFB0E1BEBF0E947B0BCDB7DEB77C
:100DFE006C97CDBFDEBF219651DFB0E0BF93E4DE2E
:100E0E00ADB7BEB71196ADBFBEBFB0E0BF93B0E2F7
:100E1E00BF93B7E0BF93B5E0BF93B0E0BF93BCE81C
:100E2E00BF93B8DEADB7BEB71696ADBFBEBFB1E0CD
:100E3E00BF93B2E0BF93BEE1BF93E0E9F2E0DE0103
:100E4E008CE090E0C8DF8E011F930F936ADEADB782
:100E5E00BEB71596ADBFBEBF2DE311EE00E40A95E9
:100E6E00F1F71A95E1F72A95D1F700000000B0E0EE
:100E7E00BF93AADEADB7BEB71196ADBFBEBF1ADF28
:100E8E00B0E0BF93A1DEADB7BEB71196ADBFBEBF8A
:100E9E00B1E0BF93B5E0BF93B4E1BF93ECE9F2E0EC
:100EAE00DE011C9680E190E096DF8E01045F1F4FFD
:100EBE001F930F9336DEADB7BEB71596ADBFBEBF4F
:100ECE0029E216E900E80A95F1F71A95E1F72A9555
:100EDE00D1F7B0E0BF9378DEADB7BEB71196ADBF18
:100EEE00BEBFB0E0BF9370DEADB7BEB71196ADBF5B
:100EFE00BEBFB1E0BF93B0E0BF93B7E0BF93B0E029
:100F0E00BF932DDDADB7BEB71496ADBFBEBFB0E07B
:100F1E00BF93B0E0BF93B1E0BF93B1E0BF93B6E033
:100F2E00BF93FFDDADB7BEB71596ADBFBEBFB1E087
:100F3E00BF93B1E6BF93B7E0BF93B0E0BF930FDDB1
:100F4E00ADB7BEB71496ADBFBEBFB0E0BF93B0E0B5
:100F5E00BF93B2E6BF93B1E0BF93B0E0BF93E1DDC4
:100F6E00ADB7BEB71596ADBFBEBFB1E0BF93B9E08A
:100F7E00BF93B4E3BF93B0E0BF93B9E2BF938DDDEF
:100F8E00ADB7BEB71596ADBFBEBFB1E0BF93B6E06D
:100F9E00BF93B0E3BF93B3E0BF93BDE2BF9336DD23
:100FAE00ADB7BEB71596ADBFBEBFB1E0BF93B7E04C
:100FBE00BF93B6E4BF93B0E0BF93BFE3BF936DDDC5
:100FCE00ADB7BEB71596ADBFBEBFB1E0BF93B4E02F
:100FDE00BF93B3E4BF93B3E0BF93B2E4BF9316DD08
:100FEE00ADB7BEB71596ADBFBEBFB1E0BF93B6E00D
:100FFE00BF93B6E5BF93B0E0BF93B0E5BF934DDDB1
:10100E00ADB7BEB71596ADBFBEBFB1E0BF93B3E0EF
:10101E00BF93B3E5BF93E0DAADB7BEB71396ADBFDE
:10102E00BEBFB0911201B160B0931201B1E0B093A6
:10103E001301B0E0B0931601B0931701B0E0B09376
:10104E001401B09315013CDB002309F44BC390DA75
:10105E0000903401109035010019110900931C0104
:10106E0010931D019FDA0090320110903301001988
:10107E00110900932601109327010090160110907C
:10108E00170100911C0110911D01001911091F93E8
:10109E000F93A4DCADB7BEB71296ADBFBEBF009323
:1010AE002401109325010090140110901501009158
:1010BE00260110912701001911091F930F938EDC41
:1010CE00ADB7BEB71296ADBFBEBF00932801109349
:1010DE00290100911C0110911D010093160110931E
:1010EE00170100912601109127010093140110930E
:1010FE001501209124013091250102E310E0021721
:10110E00130750F0209128013091290102E310E0DD
:10111E000217130708F001C096CF00911C01109121
:10112E001D01B7E0B80180E0982F660F771F881F6A
:10113E00991FBA95D1F70090340110903501409166
:10114E001A0150911B01401951098B019C0160E05D
:10115E0057FD6FEF762F7FDC8B019C0100932E01E4
:10116E0010932F012093300130933101009126010D
:10117E0010912701B6E09801220F331FBA95E1F7BF
:10118E0000903201109033014091180150911901D5
:10119E004019510989010EDC8C01080100E410E0B0
:1011AE000019110900932A0110932B01B0E0B0939E
:1011BE002C01B0932D0140912E0150912F01609181
:1011CE0030017091310100E010E020E030E0401776
:1011DE0051076207730794F040912E0150912F0131
:1011EE0060913001709131010FE710E020E030E0A6
:1011FE0004171507260737070CF001C024CF4091BE
:10120E002A0150912B0160912C0170912D0100E06B
:10121E0010E020E030E0401751076207730794F0AA
:10122E0040912A0150912B0160912C0170912D015A
:10123E000FE310E020E030E004171507260737070C
:10124E000CF001C000CF40912E0150912F01609102
:10125E003001709131010FE110E020E030E04017D5
:10126E005107620773070CF0C7C040912A015091D5
:10127E002B0160912C0170912D0108E010E020E00F
:10128E0030E040175107620773070CF0B5C0B0E0AD
:10129E00BF939ADCADB7BEB71196ADBFBEBFB1E07E
:1012AE00BF93B9E0BF93B4E3BF93B0E0BF93B9E28D
:1012BE00BF93F3DBADB7BEB71596ADBFBEBFB1E002
:1012CE00BF93B6E0BF93B0E3BF93B3E0BF93BDE26D
:1012DE00BF939CDBADB7BEB71596ADBFBEBFB1E039
:1012EE00BF93B7E0BF93B6E4BF93B0E0BF93BFE345
:1012FE00BF93D3DBADB7BEB71596ADBFBEBFB1E0E2
:10130E00BF93B4E0BF93B3E4BF93B3E0BF93B2E433
:10131E00BF937CDBADB7BEB71596ADBFBEBFB1E018
:10132E00BF93B6E0BF93B6E5BF93B0E0BF93B0E511
:10133E00BF93B3DBADB7BEB71596ADBFBEBFB1E0C1
:10134E00BF93B3E0BF93B3E5BF9346D9ADB7BEB776
:10135E001396ADBFBEBFB1E0BF93B0E0BF93B7E091
:10136E00BF93B0E0BF93FBDAADB7BEB71496ADBF77
:10137E00BEBFB0E0BF93B0E0BF93B1E0BF93B1E0AA
:10138E00BF93B6E0BF93CDDBADB7BEB71596ADBF7D
:10139E00BEBFB1E0BF93B1E6BF93B7E0BF93B0E07D
:1013AE00BF93DDDAADB7BEB71496ADBFBEBFB09179
:1013BE001201B0FF11C0B0E0BF93B0E0BF93B2E630
:1013CE00BF93B1E0BF93B0E0BF93ABDBADB7BEB799
:1013DE001596ADBFBEBF10C0B0E0BF93B0E0BF93D7
:1013EE00B2E6BF93B1E0BF93BCE0BF939ADBADB75B
:1013FE00BEB71596ADBFBEBF40912E0150912F01C5
:10140E00609130017091310100E610E020E030E093
:10141E0004171507260737070CF055C040912A010F
:10142E0050912B0160912C0170912D0108E010E07C
:10143E0020E030E040175107620773070CF043C0FD
:10144E00B0911201B0FF20C0B0911201BE7FB093D7
:10145E001201B0E0BF93B0E0BF93B2E6BF93B1E02C
:10146E00BF93BCE0BF935DDBADB7BEB71596ADBF06
:10147E00BEBF25E11BE40FEB0A95F1F71A95E1F7D4
:10148E002A95D1F700001FC0B0911201B160B09340
:10149E001201B0E0BF93B0E0BF93B2E6BF93B1E0EC
:1014AE00BF93B0E0BF933DDBADB7BEB71596ADBFF2
:1014BE00BEBF25E11BE40FEB0A95F1F71A95E1F794
:1014CE002A95D1F7000040912E0150912F01609185
:1014DE0030017091310109E210E020E030E0401758
:1014EE005107620773072CF140912E0150912F0185
:1014FE00609130017091310104E310E020E030E0A2
:10150E000417150726073707A4F040912A015091BA
:10151E002B0160912C0170912D0109E010E020E06B
:10152E0030E004171507260737071CF0B3E0B09319
:10153E00130140912E0150912F0160913001709155
:10154E0031010FE310E020E030E040175107620751
:10155E0073072CF140912E0150912F0160913001B3
:10156E007091310106E410E020E030E00417150719
:10157E0026073707A4F040912A0150912B01609164
:10158E002C0170912D0107E010E020E030E00417EF
:10159E001507260737071CF0B2E0B09313014091F0
:1015AE002E0150912F01609130017091310100E5B3
:1015BE0010E020E030E040175107620773072CF16E
:1015CE0040912E0150912F016091300170913101A7
:1015DE0006E510E020E030E0041715072607370770
:1015EE00A4F040912A0150912B0160912C01709131
:1015FE002D0106E010E020E030E004171507260765
:10160E0037071CF0B1E0B093130140912A015091BD
:10161E002B0160912C0170912D010BE010E020E068
:10162E0030E040175107620773070CF40CCD4CC025
:10163E0000901201BB2700FCB395BF9300912A01C5
:10164E000F9300912E010F930E94F302ADB7BEB718
:10165E001396ADBFBEBF46C000901201BB2700FC63
:10166E00B395BF9300912A010F5F0F9300912E0146
:10167E000F5F0F9300912A010F9300912E010F938C
:10168E00C5D9ADB7BEB71596ADBFBEBF2BC00090C6
:10169E001201BB2700FCB395BF9300912A010E5F88
:1016AE000F9300912E010E5F0F9300912A010150AE
:1016BE000F9300912E0101500F93A8D9ADB7BEB76D
:1016CE001596ADBFBEBF0EC000911301013009F4D7
:1016DE00AFCF00911301023009F4BECF0091130178
:0816EE000330A9F2B0CCFFCFDC
:0A0DE40005900D920197E1F70895C4
:100CAA00B0916400B860B0936400B0916400B06120
:080CBA00B0936400EBDB089528
:10049600B0912200B068B0932200B0912200B064FF
:1004A600B0932200B0912200B061B0932200B091C7
:1004B6002200B062B0932200B0912200B460B093E3
:1004C6002200B0912200B860B0932200BFEFB09333
:1004D6003A00B0912300B068B0932300A8DFB09132
:1004E6002300BF77B0932300A2DFB0912300B0684A
:1004F600B0932300B0912300BF7EB0932300B09148
:100506002300BF7DB0932300B0912300BB7FB0933F
:100516002300B0912300B860B093230088DFBFE3C7
:10052600B0933B0078DFB0ECB0933B0074DFB09142
:100536002300B460B0932300B0912300B77FB0933B
:100546002300BFE3B0933B0066DFB0ECB0933B0003
:1005560062DFB5E0B0931E01B7E0B0931F01BCE8BF
:10056600B0932201B0E0B0932301B0E2B093200132
:08057600B0E0B09321010895EB
:0C04340002E00A95F1F7000000000895B6
:10041C00B0912300B064B093230050DFB09123005F
:08042C00BF7BB093230008958B
:0C02C8000AE10A95F1F70000000008951B
:100BD600CF93DF93CDB7DEB72297CDBFDEBF219689
:100BE600B0912300BB7FB0932300B0912300B8607F
:100BF600B0932300B0E0B983198107E00117F0F044
:100C060009810F93A7DDADB7BEB71196ADBFBEBFC5
:100C1600B0E0B88318810FE3011760F00E810F93DF
:100C2600B0DDADB7BEB71196ADBFBEBF08810F5FD1
:100C36000883F0CF09810F5F0983DECFB0912300CF
:100C4600B77FB0932300B0912300B460B093230024
:100C5600B0E0B983198107E00117F0F009810F931D
:100C660079DDADB7BEB71196ADBFBEBFB0E0B883F4
:100C760018810FE3011760F00E810F9382DDADB787
:100C8600BEB71196ADBFBEBF08810F5F0883F0CF18
:100C960009810F5F0983DECF2196CDBFDEBFDF91CD
:040CA600CF9108954D
:10075A00CF93DF93CDB7DEB72596B0912300BF7E46
:10076A00B0932300B0912300BF7DB093230008818A
:0E077A00086B00933B004DDEDF91CF91089598
:10078800CF93DF93CDB7DEB72596B0912300BF7B1B
:10079800B0932300B0912300B061B0932300B091CF
:1007A8002300BF7DB0932300088100933B0032DE15
:0607B800DF91CF910895CE
:100BA200CF93DF93CDB7DEB72596088119810093E5
:100BB2002201109323010C811D81009320011093C7
:100BC20021010A8100931E010B8100931F01DF9115
:040BD200CF91089522
:100B3000CF93DF93CDB7DEB72197CDBFDEBF219630
:100B4000B0E0B8831D812E810881E02FF0E0E10F35
:100B5000F21F0081002301F109850F9308850F938F
:100B60000F810F931D812E810881E02FF0E0E10FAE
:100B7000F21F00810F9323DEADB7BEB71496ADBF51
:100B8000BEBF00911E01102F1F5F0F81010F0F8349
:100B900008810F5F0883D6CFCDBFDEBFDF91CF9135
:020BA0000895B6
:1007BE00CF93DF93CDB7DEB72697CDBFDEBF2196A1
:1007CE0000902001109021010A8510E000191109F6
:1007DE0040911E0150E093DD0C831D830B850F931A
:1007EE0072DDADB7BEB71196ADBFBEBF0C850F9310
:1007FE00ADDFADB7BEB71196ADBFBEBFB0E0B8832B
:10080E00188100911E01101708F06AC00B850F9316
:10081E00DCDDADB7BEB71196ADBFBEBF0C850F9375
:10082E0095DFADB7BEB71196ADBFBEBF0B850F93AB
:10083E004ADDADB7BEB71196ADBFBEBF8CDD098325
:10084E008ADD09830B850F93C0DDADB7BEB7119658
:10085E00ADBFBEBF0C850F9379DFADB7BEB7119696
:10086E00ADBFBEBF0B850F932EDDADB7BEB71196D4
:10087E00ADBFBEBF20912201309123010C811D819D
:10088E00F801E20FF31F24912A830F5F1F4F0C8391
:10089E001D83022F00950B830BC00B81098311C0A2
:1008AE000A8109830EC019810A810127098309C0B3
:1008BE000D85003091F30D85013091F30D850230D9
:1008CE0091F309810F9359DFADB7BEB71196ADBF46
:1008DE00BEBF0B850F5F0B8708810F5F088390CF1C
:1008EE000B850F9372DDADB7BEB71196ADBFBEBF10
:1008FE000C850F932BDFADB7BEB71196ADBFBEBF44
:10090E000B850F93E0DCADB7BEB71196ADBFBEBF82
:10091E00BFEFBA83B0E0BB8316C00A8109830A8198
:10092E000F932BDFADB7BEB71196ADBFBEBF11C0D3
:10093E000B8109830B810F9320DFADB7BEB71196E4
:10094E00ADBFBEBF06C00D85003039F30D85013039
:0E095E0079F32596CDBFDEBFDF91CF910895CE
:10030C002227002400FF02C0040E251F440F551F96
:10031C004115510529F0169507951050004091F79D
:06032C00122F002D0895C0
:1002D400CF93DF93CDB7DEB7259608810F770883D8
:1002E400B0912300BF7EB0932300B0912300BF7D63
:1002F400B09323000F7B08830064088300933B00C2
:080304008BD0DF91CF91089529
:1003D800CF93DF93CDB7DEB7259608810F770883D3
:1003E80006FF0BC0B0912300B460B0932300B09116
:1003F8002300B77FB09323000AC0B0912300BB7FCE
:10040800B0932300B0912300B860B0932300DF912C
:04041800CF910895E3
:10036400CF93DF93CDB7DEB72197CDBFDEBF219604
:100374005FD0B0912300B061B0932300B09123000B
:10038400BF7BB0932300B0912300B062B0932300ED
:10039400B0E0B0933A00B0912300B064B09323006E
:1003A4008CDF8BDFEBE3F0E0329700810883B091C0
:1003B4002300BF7BB0932300B0912300BF7DB09393
:1003C4002300BFEFB0933A000881CDBFDEBFDF91B9
:0403D400CF91089528
:0A02BE0005E80A95F1F70000089525
:100CC200CF93DF93CDB7DEB7A497CDBFDEBF21961A
:100CD200B1E0BF93BFE3BF93B0E0BF9383DCADB796
:100CE200BEB71396ADBFBEBFB1E0BF93B3E0BF9333
:100CF200BCE0BF93ECE6F2E0DE0182E190E071D06D
:100D02008E011F930F9313DFADB7BEB71596ADBF1C
:100D1200BEBFDCDC002309F4FCCF30DC0A501040FB
:100D2200009334011093350143DC0A5010400093C4
:100D320032011093330129E216E900E80A95F1F72E
:100D42001A95E1F72A95D1F7B0E0BF9343DFADB72B
:100D5200BEB71196ADBFBEBFB1E0BF93B0E0BF93C7
:100D6200BFE7BF933FDCADB7BEB71396ADBFBEBF03
:100D7200B1E0BF93B4E0BF93BCE0BF93EEE7F2E013
:100D8200DE01529682E190E02CD08E010E5E1F4F62
:100D92001F930F93CCDEADB7BEB71596ADBFBEBFE6
:100DA20095DC002309F4FCCFE9DB0B5F1F4F0093B6
:100DB2001A0110931B01FCDB0B5F1F4F00931801FC
:100DC2001093190129E216E900E80A95F1F71A953C
:100DD200E1F72A95D1F7A396CDBFDEBFDF91CF9180
:020DE200089572
:1005E600CF93DF93CDB7DEB72397CDBFDEBF21967E
:1005F6000F81102F1F771F8308850F7308871F939E
:10060600E8DEADB7BEB71196ADBFBEBF088506958D
:10061600069506950F939ED0ADB7BEB71196ADBFA2
:10062600BEBF0F810F9353DEADB7BEB71196ADBFF8
:10063600BEBF95DE0A8393DE0A8308850695069576
:1006460006950F9387D0ADB7BEB71196ADBFBEBFA7
:100656000F810F933CDEADB7BEB71196ADBFBEBFDF
:10066600088507700883B02F01E0BB2319F0000F3F
:10067600BA95E9F70883009509830FC01A810981A5
:1006860001230A8313C01A810881012B0A830EC035
:100696001A81088101270A8309C00985003071F390
:1006A6000985013081F30985023091F30A810F93A0
:1006B60068D0ADB7BEB71196ADBFBEBF2296CDBF4F
:0806C600DEBFDF91CF91089522
:1006CE00CF93DF93CDB7DEB72197CDBFDEBF219697
:1006DE00B0916500B77FB0936500B0916500BF7EA5
:1006EE00B093650014E302EF0A95F1F71A95E1F75E
:1006FE000000B1E0BF9316DEADB7BEB71196ADBF29
:10070E00BEBF24E833E02017310700E008F401E013
:10071E00088315E107EC0A95F1F71A95E1F7B1E0B8
:10072E00BF9300DEADB7BEB71196ADBFBEBF24E816
:10073E0033E02017310710E008F411E0088101239F
:0C074E000883CDBFDEBFDF91CF9108957E
:10033200CF93DF93CDB7DEB72596088107B9B7EC27
:10034200B6B9B6B1B6FF01C0FCCF04B1402F50E040
:1003520005B1302F22278A01022B132BDF91CF9177
:020362000895FC
:10057E00B0916500B860B0936500B0916500BF7E24
:10058E00B093650014E302EF0A95F1F71A95E1F7BF
:10059E000000B0E0BF93C6DEADB7BEB71196ADBFDB
:0405AE00BEBF08952F
:1005B200B0916500B77FB0936500B0916500B061FE
:1005C200B093650014E302EF0A95F1F71A95E1F78B
:1005D2000000B1E0BF93ACDEADB7BEB71196ADBFC0
:0405E200BEBF0895FB
:10096C00CF93DF93CDB7DEB72197CDBFDEBF2196F6
:10097C001D810E81011730F40D8108830E810D83CA
:10098C0008810E831D810E81011780F008850F935D
:10099C000D810F930F810F9320DEADB7BEB7139669
:1009AC00ADBFBEBF0D810F5F0D83ECCFCDBFDEBFE2
:0609BC00DF91CF910895C8
:100AA800CF93DF93CDB7DEB725960C810F930981DD
:100AB8000F930A8101500F9308810F5F0F93BCDCDD
:100AC800ADB7BEB71496ADBFBEBF0C810F930B81F7
:100AD8000F930A8101500F9308810F5F0F93ACDCCD
:100AE800ADB7BEB71496ADBFBEBF0C810F930881DA
:100AF8000F930B810F9309810F9334DFADB7BEB706
:100B08001496ADBFBEBF0C810F930A810F930B8162
:100B18000F9309810F9326DFADB7BEB71496ADBF0B
:080B2800BEBFDF91CF910895DB
:10044000CF93DF93CDB7DEB72197CDBFDEBF219627
:100450001D810E81011730F40D8108830E810D83FB
:1004600008810E831D810E81011780F008850F938E
:100470000F810F930D810F93B6D0ADB7BEB7139612
:10048000ADBFBEBF0D810F5F0D83ECCFCDBFDEBF13
:06049000DF91CF910895F9
:100A1A00CF93DF93CDB7DEB72197CDBFDEBF219647
:100A2A000E81088318810885011790F009850F93B4
:100A3A0008810F930F810F930D810F93FCDCADB7E3
:100A4A00BEB71496ADBFBEBF08810F5F0883EACF59
:0A0A5A00CDBFDEBFDF91CF910895FC
:1009EA00CF93DF93CDB7DEB725962881398100E012
:1009FA0010E0201731073CF40880198000E010E06D
:100A0A000019110902C008811981DF91CF91089557
:000A1A00DC
:100A6400C9019A01AB01B801A1E21A2EAA1BBB1B52
:100A7400FD010DC0AA1FBB1FEE1FFF1FA217B30766
:100A8400E407F50720F0A20BB30BE40BF50B661F8C
:100A9400771F881F991F1A9469F760957095809540
:040AA400909508958C
:1009C200C801BA01AA1BBB1B51E107C0AA1FBB1F6A
:1009D200A617B70710F0A61BB70B881F991F5A95C9
:0809E200A9F780959095089596
:1016F600A0E0B1E0ECEAF2E082E190E00E94F206BE
:02170600089544
:10008C00000000000000005F0000000700070014E3
:10009C007F147F14242A7F2A1223130864623649A2
:1000AC005522500005030000001C22410000412293
:1000BC001C00082A1C2A0808083E080800503000BA
:1000CC00000808080808003030000020100804025E
:1000DC003E5149453E00427F400042615149462114
:1000EC0041454B311814127F1027454545393C4A80
:1000FC0049493001710905033649494936064949D0
:10010C00291E003636000000563600000008142266
:10011C00411414141414412214080002015109064C
:10012C00324979413E7E1111117E7F494949363E53
:10013C00414141227F4141221C7F494949417F096C
:10014C000901013E414151327F0808087F00417F7F
:10015C0041002040413F017F081422417F40404034
:10016C00407F0204027F7F0408107F3E4141413EE4
:10017C007F090909063E4151215E7F09192946462E
:10018C004949493101017F01013F4040403F1F2057
:10019C0040201F7F2018207F631408146303047809
:1001AC000403615149454300007F4141020408109A
:1001BC002041417F000004020102044040404040C5
:1001CC00000102040020545454787F4844443838C9
:1001DC0044444420384444487F3854545418087ECE
:1001EC00090102081454543C7F0804047800447D2F
:1001FC0040002040443D00007F10284400417F40D7
:10020C00007C041804787C0804047838444444388E
:10021C007C14141408081414187C7C080404084872
:10022C0054545420043F4440203C4040207C1C202B
:10023C0040201C3C4030403C44281028440C50507A
:10024C00503C4464544C44000836410000007F008C
:10025C0000004136080008082A1C08081C2A080857
:0602AC00455241534500DC
:0602B200434C45415200DF
:0602B800575249544500B5
:0C02900043414C4942524154494F4E003A
:10029C005752495445204F4E2053435245454E002A
:10026C00544F55434820424F54544F4D204C454613
:02027C0054002C
:10027E00544F5543482055505045522052494748F7
:02028E0054001A
:00000001FF
