:100000000C9489050C94FB050C94FB050C94FB05E2
:100010000C94FB050C9484520C949A650C944053F8
:100020000C94FB050C94FB050C94FB050C94FB0550
:100030000C94FB050C942C540C94FB050C94FB05C0
:100040000C94FB050C94FB050C94FB050C94FB0530
:100050000C94FB050C94FB050C94FB050C94B65317
:100060000C94FB050C94A45F0C94FB050C941F608E
:100070000C94FB050C94FB050C94FB050C94FB0500
:100080000C94FB050C94FB050C94FB050C94FB05F0
:100090000C9499600C94FB050C9414610C942A5FE9
:1000A0000C94FB050C94FB050C94FB050C94FB05D0
:1000B0000C94FB050C94FB050C94FB050C94FB05C0
:1000C0000C94FB050C94FB050C94FB05A755F0550F
:1000D00037565D5671569956A156C656A455E856E0
:1000E0002F5735573B5741575E5747575E579457E1
:1000F00069577E575254432074696D65205B2530E3
:1001000032643A253032643A253032645D00486505
:100110006C6C6F20576F726C64007700756172743D
:1001200030000A000A23446562756720000A2349EB
:100130006E666F2020000A234E6F74696320000AE8
:10014000235761726E2020000A23457272202020FE
:10015000000A23437269742020000A23416C6572EF
:100160007420000A23456D65726720003F3F203CE4
:10017000444D4B3E200057443A200056533A20004D
:1001800056453A200055543A200055443A2000552F
:10019000413A200053523A200053503A200053472E
:1001A0003A200053453A200053543A200052543A22
:1001B000200052433A2000504C3A200050413A204F
:1001C000004D443A20004D4D3A20004D453A200064
:1001D00053593A20004C473A20004C453A20004BF6
:1001E000423A2000494E3A200048543A2000464CFA
:1001F0003A200046413A200044503A2000434D3A0C
:10020000200043483A200041553A20003080300019
:10021000170780B0173C06001750003F2400060067
:10022000162012008F570000CE10122900990000EE
:100230004D0080404C180600D7960028550D000050
:10024000480D0600505B0930420080B00180144226
:1002500040BC182840C71336423C003E03B8140087
:10026000031B1500C259D66F2400003603981228CC
:10027000D55700004D000028402BF33624004C8059
:10028000103E1438103E0A78133E0DB8033E05F8B0
:1002900006009555093015141B00D4FF0300CEFF4E
:1002A00001000A000024CE168AB5240092F20094C0
:1002B0005261240002FE2400B24824004A4501B6DF
:1002C000F33605D8F3360D98F0360A5800200000B2
:1002D000F0361418618013362400123E17B8123E0F
:1002E0001538053E14B82536240000000A80103E5B
:1002F00003B8944105B8113E2400113E07B8143EDE
:100300001278143E0DF8033E0EF806005100002846
:10031000D5240000240088B81200046405040000FD
:1003200024000028582194402400002402210000C9
:1003300024009864030856FE2400B6482400D64DD5
:100340002400103A24C0F03224C056FE2400B648DF
:100350002400D64D24008443834496638C8800F4A3
:10036000D540003D2480060091003F00C3FE0600FA
:1003700053000131248060FE2400BE48240034A6CE
:10038000030C244324008442022C060011000028A0
:10039000D824003124800600115000392480060042
:1003A000110000314C9884424C9000F488400028A1
:1003B000452800002400F03C40380930413809301D
:1003C000103800200000000088270930D01B0028CA
:1003D00080280930811BF334CC1BF3360ED8F43659
:1003E0000DD8F4361258F1360798F1360518F03664
:1003F000039805341490F3362400F23615180020C3
:100400000000F2361798AD80123E17B8123E15382C
:10041000053E14B81536240000000A80103E02780C
:10042000103E04F8113E1078143E1278132980C94A
:10043000143E24C0132980C988404C1800F405409C
:100440000000C018006424000000C01B0028953084
:10045000300010030028803F01382440006424004D
:100460000000401A002855370600D0550000037DD3
:1004700084B84C1809300538093000008AFF240080
:100480001D29007BB24824000000411806001050CE
:100490008A4044B800290013884024000030CC1B57
:1004A00014602400300051030028D53600002400D9
:1004B00006001100003124003000510300382400F0
:1004C0000028803F01392440006424003000D0031C
:1004D0000028553F0000037D0600D05584B84C1815
:1004E00009300538093000008AFF24001D29007BEF
:1004F000B24824008A40CC9B000041180028553B9C
:10050000060010509A682400003024001460240073
:10051000300092030028853E06009100060011007D
:10052000000052180600530080B800240600910015
:100530000438248030009203003B24000139244019
:100540000028803F013A24400138244080B8D31B62
:10055000F4361258F1361058F03604D8F0360258F6
:1005600005341490F3362400F236151800200000EC
:10057000F2361798300000000000457869740000DA
:10058000000053EF6E000000004578697453EF6E71
:100590004DEA6D5400000000070606060606060632
:1005A00006060606060606060606060606060606EB
:1005B00006060606060606060606060606060606DB
:1005C00006060606060606060606060606060606CB
:1005D00006070606060606060606060606060606BA
:1005E00006060606060606060606060606060606AB
:1005F000060606060606060606060606070606069A
:10060000060606060606060606060606060606068A
:10061000060606060606060606060606060606067A
:10062000060606060606060606060606060606066A
:10063000060606060606060606060606060606065A
:10064000060606060606060606060606060606064A
:10065000060606060606060606060606060606063A
:10066000060606060606060606060606060606062A
:10067000060606060606060606060606060606061A
:10068000060606060606060606060606060606060A
:1006900006060606060706060606060606060606F9
:1006A00006060606060606060606060606060606EA
:1006B00006060606060606060606060606060606DA
:1006C00006060606060606060606060606060606CA
:1006D00006060606060606060606060606060606BA
:1006E00006060606060606060606060606060606AA
:1006F000060606060606060606060606060606069A
:100700000606060606060606060606060606060689
:100710000606060606060606060606060606060679
:100720000606060606060606060606060606060669
:100730000606060606060606060606060606060659
:10074000060606060606060606060606065468722D
:10075000656164206661696C656400436172645020
:1007600072657300436172642072656D6F766564B3
:10077000004361726420696E73657274656400453C
:1007800072726F7220696E697469616C6973696EE7
:10079000672046696C652073797374656D20616E9E
:1007A0006420436172642D647269766572004361EE
:1007B0007264206D6F756E74656400696E76616C2D
:1007C0006964205370656564006572726F7220649D
:1007D0007572696E672043534420726561640052EC
:1007E00054432074696D65205B253032643A2530AE
:1007F00032643A253032645D0073746174655F63FE
:100800006C6F636B73637265656E20636C6F636B93
:1008100020726566726573680073746174655F63E6
:100820006C6F636B73637265656E20656E7472794D
:100830000069665F676174657761793A20257300A6
:1008400069665F6D61736B3A2025730069665F614D
:100850006464723A2025730069665F6E616D653A63
:100860002025730045746865726E65742052656159
:10087000647920746F20557365004572726F722021
:100880004E7574446863704966436F6E6669672885
:1008900029004572726F723A206E6F2073746F7206
:1008A0006564204D616361646472657373004572B1
:1008B000726F723A203E3E204E75745265676973BE
:1008C000746572446576696365282900FFFFFF300F
:1008D000FFFFFFFFFFFFFFFFFFFFFFFFFFFF000026
:1008E0000000000000000000000000000000000008
:1008F00000000000000000000000000000000000F8
:1009000000000000000000000000000000000000E7
:1009100000000000000000000000000000000000D7
:100B1000000084E880937400479A3F9A469A3E9A70
:100B200081EE809300C380E4809301C385B78F7703
:100B300085BF80E090E0359B05C0019641F0359B74
:100B4000F8CFFBCF019619F03599F3CFFBCF85B7DE
:100B5000806885BF47983F9846983E9887E0809385
:100B6000C4008093CC0011241FBECFEFD1E2DEBFC2
:100B7000CDBF14E0A0E0B2E0EAE0F3E001E00BBF9B
:100B800002C007900D92AA3CB107D9F718E0AAEC71
:100B9000B4E001C01D92AB3EB107E1F78FEF9FE7D4
:100BA0009EBF8DBF8FEF9FE78B5E9840815891402D
:100BB00040F06FEF7EE76B5E78408BEE98E00E942E
:100BC0008A450E944D4E892B41F065E973E08DEC1A
:100BD00098E00E94D5800E94344E20E831E040E049
:100BE00050E061EB79E28EE993E00E9404510E94AB
:100BF00000000C9484810C94000087EF84B98CE091
:100C00008AB98BB18C70836F8BB98EE88DB98EB138
:100C10008E7881608EB985B7806885BF85B780681A
:100C200085BF8EE080BB81B38E70816F81BB88E110
:100C300083BB08950F931F93CF93DF93CDB7DEB798
:100C400062970FB6F894DEBF0FBECDBF0E94160F9D
:100C500084E60E9478490E94FD050E94B8100E9417
:100C600076090E94070B0E9425070E94D9060E9460
:100C700050098EE091E09F938F9306EC0F930E94B2
:100C800010080E949C0F0E944022CE0101960E94F3
:100C90005C220F900F900F90892BD9F489819A8153
:100CA0009F938F938B819C819F938F938D819E8146
:100CB0009F938F9384EF90E09F938F930F930E9465
:100CC00010088DB79EB709960FB6F8949EBF0FBE59
:100CD0008DBF0E9414200E94A80E0E944B0A40E083
:100CE00050E06EE976E08BEC93E00E94774E892B22
:100CF00049F485B5846085BDA89A80916E008160B5
:100D000080936E0081E00E94AE4878940E94C828CB
:100D10000E9478280E947C266AE070E080E090E0E3
:100D20000E948A4A8E010F5F1F4FC8010E945C22F9
:100D3000C8010E94C9260E94140FEECF0E947E09AE
:100D40000E94430F08958091CA049091CB040895A6
:100D50008091CA049091CB04009731F00E94C17A2F
:100D60001092CB041092CA040895CF93DF93CDB7AD
:100D7000DEB724970FB6F894DEBF0FBECDBF6983F0
:100D80007A838B839C838091CA049091CB040E94C8
:100D9000127BAE014F5F5F4F63E171E00E94577AB3
:100DA00024960FB6F894DEBF0FBECDBFDF91CF9172
:100DB0000895EF92FF920F931F93CF93DF93CDB7D8
:100DC000DEB72D970FB6F894DEBF0FBECDBF80E023
:100DD00092ECA1E0B0E08C839D83AE83BF8388E07A
:100DE000E82EF12CEC0EFD1E6CE171E0C7010E94B3
:100DF00087806AE171E08E010F5F1F4FC8010E947A
:100E000087804091730450917404B801C7010E9417
:100E1000727B9093CB048093CA04009749F00E94A0
:100E2000127BAE014C5F5F4F61E071E00E94577A28
:100E30002D960FB6F894DEBF0FBECDBFDF91CF91D8
:100E40001F910F91FF90EF9008951092CB04109294
:100E5000CA0440E060E070E087ED93E00E94084E35
:100E600008959091CC04883010F48093CC04892F9D
:100E7000992708952F923F924F925F926F927F929F
:100E80008F929F92AF92BF92CF92DF92EF92FF929A
:100E90000F931F93CF93DF93CDB7DEB7CD54D040E0
:100EA0000FB6F894DEBF0FBECDBF7C016B011A01F7
:100EB000892B09F48EC094E0692E712C44245524AA
:100EC000AA24BB24A0E0B0E000E010E07EC0C50191
:100ED0008F709070892B69F54DE450E060E270E00E
:100EE0008E010F5F1F4FC8010E94BA809301220F2D
:100EF000331F220F331F2450304040E050E0D80110
:100F0000F201022E02C0F695E7950A94E2F7EF701F
:100F1000F070E050FE4F80818D934F5F5F4F245003
:100F200030404615570561F7D301129683010C5CDA
:100F30001F4FF6019081E92FE295EF70FF27E050F7
:100F4000FE4F50814D010894811C911CE92FFF2711
:100F5000EF70F070E050FE4F4081892F80528F3546
:100F600010F08EE201C0892F9E012F5F3F4FA20F2C
:100F7000B31F5C93F901E80DF91D4083F901E00FFF
:100F8000F11F80830F5F1F4F0894A11CB11CC50186
:100F90008F709070892B19F0A214B30489F4F901B1
:100FA000E00FF11F1082B701C9010E94057CB70153
:100FB0008AE090E00E94DD7B80E190E0480E591EBF
:100FC0000894C11CD11CD4011296A214B30409F0D8
:100FD0007ECFC35BDF4F0FB6F894DEBF0FBECDBF31
:100FE000DF91CF911F910F91FF90EF90DF90CF9005
:100FF000BF90AF909F908F907F906F905F904F9039
:101000003F902F9008956091CD047091CE046115AA
:10101000710529F0992787FD90950E94DD7B089541
:101020001F93CF93DF93CDB7DEB722970FB6F89417
:10103000DEBF0FBECDBF19856091CD047091CE0487
:101040006115710509F410C1212F33272770307005
:101050008091CC049927821793070CF405C1812F46
:1010600087708330F1F0843028F48130A1F0823031
:10107000A8F40EC08530D9F08530B0F08630D1F0BC
:10108000873019F484E291E017C082E291E014C045
:1010900083E691E011C08AE591E00EC081E591E020
:1010A0000BC088E491E008C08FE391E005C086E3BF
:1010B00091E002C08DE291E00E94167C6091CD0427
:1010C0007091CE04212F287F283709F4AAC0293730
:1010D00090F5283309F499C02933B0F4283109F484
:1010E0008EC0293138F4283009F486C0203109F047
:1010F00053C055C0283209F485C0203309F455C0C7
:10110000203209F049C04EC0283509F484C0293581
:1011100048F4283409F47CC0203509F44CC020344C
:10112000D9F546C0283609F479C0203709F449C0FA
:10113000203691F543C0283B09F47FC0293BA8F431
:10114000283909F474C0293940F4283809F46CC0EE
:101150002039E9F1203801F537C0283A09F46AC08E
:10116000203BD9F1203AC1F435C0283D09F46BC0C9
:10117000293D40F4283C09F463C0203DA1F1203C06
:1011800059F42EC0283E29F0203F99F1203E21F449
:101190002DC086E791E059C08CE691E056C087E00B
:1011A00092E053C082E092E050C08DEF91E04DC0DC
:1011B00088EF91E04AC083EF91E047C08EEE91E066
:1011C00044C089EE91E041C084EE91E03EC08FEDD5
:1011D00091E03BC08AED91E038C085ED91E035C0EB
:1011E00080ED91E032C08BEC91E02FC086EC91E075
:1011F0002CC081EC91E029C08CEB91E026C087EBFC
:1012000091E023C082EB91E020C08DEA91E01DC007
:1012100088EA91E01AC083EA91E017C08EE991E074
:1012200014C089E991E011C084E991E00EC08FE813
:1012300091E00BC08AE891E008C085E891E005C024
:1012400080E891E002C08BE791E00E94167CAE013D
:10125000445F5F4F5A8349836A857B858091CD04C3
:101260009091CE040E942A7C22960FB6F894DEBF9D
:101270000FBECDBFDF91CF911F9108958091CD0416
:101280009091CE041092CE041092CD040E94017B66
:1012900008950E94A3069093CE048093CD040895F0
:1012A00087E08093CC040E9449090895833059F067
:1012B000843018F4882339F008C0853031F0853047
:1012C00040F0863091F48B9801C08B9A8093CF04C4
:1012D00008958091CF04813021F48B981092CF042F
:1012E00008958B9A81E08093CF0408958B98109293
:1012F000CF0408958091CF0499270895A398000002
:1013000000004FB1A39AA498000000006FB1A49A06
:101310005B98000000008FB15B9A5A9800000000B3
:101320002FB15A9A42954F705527607F7727462BE9
:10133000572B807F992734E0880F991F3A95E1F762
:10134000482B592B207F3327322F2227422B532B18
:101350005093D3044093D2040895E82F862F8150F0
:10136000823030F4E03120F4FF27E852FB4F6083F5
:1013700008958091D2049091D3042FEF8F3B920770
:1013800009F458C02FEF803C9207F8F42BEF8F3F01
:10139000920709F45EC02CEF8030920748F42FEEDC
:1013A0008F3F920709F45BC08F5F974F89F548C064
:1013B0002EEF8F3F920709F449C02FEF8F37920726
:1013C00081F18F5F9D4F21F547C02FEF873F920737
:1013D00059F12FEF883F920760F42FEF8F3D92076E
:1013E00091F12FEF8F3E920741F18F5C9F4F81F477
:1013F0000CC02FEF8D3F920789F02FEF8E3F9207A1
:10140000B1F08B5F9F4F21F406C08EE090E008950D
:1014100088E890E0089581E090E0089582E090E00F
:10142000089583E090E0089584E090E0089585E0D9
:1014300090E0089586E090E0089587E090E00895B8
:1014400088E090E0089589E090E008958AE090E0D7
:1014500008958BE090E008958CE090E008958DE091
:1014600090E008958093D404E091D004F091D104E9
:10147000309739F48FEF9FEF9093D1048093D0048D
:1014800008958FEFEF3FF80729F084819581019649
:10149000958384830895A39AA49A5B9A5A9A10928A
:1014A000D7048FEF9FEF9093D3048093D2040FB6AD
:1014B000F8940F921092D1041092D0040F900FBEA6
:1014C0008FEF8093D404E8EDF4E082E0819394E020
:1014D000E83EF907D9F71092D6041092D50461E0DE
:1014E00088E00E94AD0961E08BE00E94AD0961E0F7
:1014F0008AE00E94AD0961E08CE00E94AD09089588
:10150000AB01BC0180ED94E00E94724D20E030E020
:101510008F5F9F4F11F421E030E0C90108958130C1
:1015200011F4739A0895882309F4739808959AB171
:101530009F70906F9AB99BB19F70607F962B9BB9FB
:10154000823011F48A9801C08A9A729A00000000D1
:1015500072988A988AB18F708AB98BB18F70806FB8
:101560008BB908950F931F93082F162F8A98899A85
:10157000729A000000004F99FBCF72988A98899860
:10158000612F607F802F0E94970A1295107F612F34
:10159000802F0E94970A1F910F91089568EA82E0B8
:1015A0000E94B20A089561E082E00E94B20A0895A2
:1015B000682F83E00E94B20A0895EF92FF920F9382
:1015C0001F93CF93DF93EC0109900020E9F7219757
:1015D000C81BD90BEE24FF248C010FC0F8018081B9
:1015E0000E94D80AF0E1EF16F10411F40E94CE0A2D
:1015F0000894E11CF11C0F5F1F4FEC16FD0674F3FD
:10160000DF91CF911F910F91FF90EF9008951F935D
:101610008CE80E94784910E063E382E00E94970A18
:1016200084E00E9478491F5F1330B1F762E282E0E4
:101630000E94970A81E00E94784968E282E00E9455
:10164000B20A85E00E9478496CE082E00E94B20A0A
:1016500085E00E94784961E082E00E94B20A85E05C
:101660000E94784966E082E00E94B20A60E882E067
:101670000E94B20A1F9108950FB6F8940F929DB37D
:10168000882311F0EE9A01C0EE980F900FBE892FBB
:10169000992726E0969587952A95E1F781709070B5
:1016A000089580E00E943C0B982F8091E8048130DF
:1016B00011F41092E804892F0E943C0B80E090E026
:1016C00008958091E804992708958091E904909104
:1016D000EA0408958091E9049091EA0408950F9333
:1016E0001F93CF93DF93EC018B0180E090E00E9489
:1016F000BC1005C0FE0184910E94A41021960150E7
:101700001040FFEF0F3F1F07A9F70E949910DF91CC
:10171000CF911F910F9108951F9380E00E943C0B81
:10172000182F64E070E08AE795E00E946F0B64E098
:1017300070E086E795E00E946F0B812F0E943C0BC2
:1017400080E090E01F9108950F931F93CF93DF9354
:101750008C01EB0180E090E00E94BC1005C0F80114
:1017600081918F010E94A4102197FFEFCF3FDF07E7
:10177000B1F70E949910DF91CF911F910F910895B9
:10178000EF92FF920F931F93F82E8B010E94A010EF
:10179000E82E80E00E949D1080E090E00E94BC1046
:1017A0002C9882E00E94A4108F2D0E94A410812FFB
:1017B00099270E94A410802F0E94A4102C9A0E94A6
:1017C00099108E2D0E949D101F910F91FF90EF9008
:1017D0000895DF92EF92FF920F931F93082FE62E4A
:1017E00080E00E943C0BD82E1127102F0027FF24E9
:1017F0000E291F29B8018BE00E94C00B8D2D0E947D
:101800003C0B80E090E01F910F91FF90EF90DF90F4
:101810000895FF920F931F938C0180E00E943C0B70
:10182000F82E1C60B80180E00E94C00B8F2D0E9432
:101830003C0B80E090E01F910F91FF9008951F9363
:10184000CF93DF93CDB7DEB721970FB6F894DEBF05
:101850000FBECDBF898380E00E943C0B182F80E231
:1018600090E00E94090C63E070E082E895E00E943D
:101870006F0B61E070E0CE0101960E94A40B64E062
:1018800070E08EE795E00E946F0B812F0E943C0B69
:1018900080E090E021960FB6F894DEBF0FBECDBF7A
:1018A000DF91CF911F910895282F33272770307033
:1018B000C90153E0880F991F5A95E1F7820F931FD2
:1018C000885C0E941F0C0895DF92EF92FF920F93A5
:1018D0001F93CF93DF93CDB7DEB721970FB6F89460
:1018E000DEBF0FBECDBF89837B0180E00E943C0B31
:1018F000D82E80E290E00E94090C89818295807F39
:10190000885C898363E070E08DE895E00E946F0B4E
:1019100061E070E0CE0101960E94A40B05E815E09D
:1019200064E070E0C8010E946F0B8E2D0E94784920
:1019300064E070E089E895E00E946F0B64E070E07D
:10194000C8010E946F0B8D2D0E943C0B80E090E03F
:1019500021960FB6F894DEBF0FBECDBFDF91CF91B9
:101960001F910F91FF90EF90DF9008950F931F93B9
:101970008C0180E00E943C0B1092E804C801846056
:101980000E94090C8AE00E94784980E48CBB80E0C8
:1019900090E01F910F910895DF92EF92FF920F93C5
:1019A0001F93182F0E94A010D82E80E00E949D1037
:1019B00080E090E00E94BC102C9883E00E94A4106C
:1019C000812F0E94A4100E94A910E82EFF24FE2C53
:1019D000EE240E94A910082F2C9A0E9499108D2D98
:1019E0000E949D101127C701802B912B1F910F91F1
:1019F000FF90EF90DF900895FF920F931F9380E088
:101A00000E943C0BF82E8BE00E94CC0C8C018F2D99
:101A10000E943C0BC8011F910F91FF900895FF9207
:101A20000F931F93182F80E00E943C0BF82E812FFC
:101A30000E94CC0C8C018F2D0E943C0BC8011F9181
:101A40000F91FF90089589E00E940F0D9C018FEF88
:101A5000213E380790F58DE424353807A1F18DE457
:101A60002535380768F481E424353807F9F08DE42A
:101A700024333807D9F081E42434380709F516C037
:101A800087E52D363807F9F087E52E36380728F434
:101A900087E52D343807A1F409C086E725363807D5
:101AA00029F08FEF203E380759F40DC08091E904EA
:101AB0009091EA04039739F403C020EE3FEF03C08E
:101AC00080E090E00895C901089580E00E943C0BF9
:101AD0002F982C9A2898209A84E00E94784980E0D8
:101AE0000E949D101092E8042F9A84E00E94784989
:101AF00081E00E94CC0C74E0969587957A95E1F789
:101B0000877090709093EA048093E904039719F426
:101B100060E070EE02C060E078E983E00E94C00BF4
:101B200082E30E94784980E090E00E94090C60E026
:101B300080E00E94E90B82E30E9478498091E904E9
:101B40009091EA040397029710F482E001C081E0CB
:101B50000E949D1040E050E06DEB7DE085EC93E04D
:101B60000E94774E66E070E085EC93E00E94F54EAF
:101B700080E48CBB80E090E00895BF92CF92DF922A
:101B8000EF92FF920F931F93CF93DF93CDB7DEB702
:101B900022970FB6F894DEBF0FBECDBF8091E80448
:101BA000813009F04FC0669B4DC080E00E943C0B25
:101BB000B82E78941A82198280E090E00E94BC10BE
:101BC000F0E2EF2EF12C00E010E0CC24DD2403C085
:101BD000EFE1EE2EF12C89819A81C816D906C0F06A
:101BE000C114D10419F0C6010E949246CE0101969B
:101BF0000E9411468C0189819A81892B19F0CC248D
:101C0000DD2408C082E08093E804CC24DD2412C0E7
:101C1000892B41F0F80181918F010E94A410089452
:101C2000C11CD11C6699D4CF0894E108F108E114D5
:101C3000F10489F60E949910C6010E942F478B2D4E
:101C40000E943C0B22960FB6F894DEBF0FBECDBFAC
:101C5000DF91CF911F910F91FF90EF90DF90CF9088
:101C6000BF9008950F931F93CF93DF938091E80463
:101C7000813009F435C080E00E943C0BCCE0D2E01A
:101C8000FE0165917491E8E9F5E0E4918E2F0E94E0
:101C9000C00B00E010E011C0FE0165917491F801E5
:101CA000E856FA4FE4918E2F0E94C00BC80164EFF2
:101CB00071E00E942881892B11F40E94140F0F5F9C
:101CC0001F4F229681E0053B180731F781E0809392
:101CD000E80480E090E00E94BD0D81E00E943C0B92
:101CE00080E090E0DF91CF911F910F9108951F93B5
:101CF000CF93DF9380E090E00E94B60C80E290E00A
:101D00000E94090C80E00E943C0B182F68E070E0F4
:101D100080E995E00E946F0B88E20E94784988E094
:101D20000E94CC0CEC01812F0E943C0B8091E904B5
:101D30009091EA04039731F480E8CF37D80711F483
:101D4000C0E0D0E0CE01DF91CF911F9108950895BA
:101D500080916A008C7F80936A0040E050E067EADF
:101D60007EE08FEB93E00E94774E892B31F48091D7
:101D70006A00826080936A00EC9A8091810083609F
:101D800080938100AD9A0FB6F8940F921092EC04F4
:101D90001092EB040F900FBE0895EF92FF920F93F5
:101DA0001F93AB01BC01A89521E0E12CE8E0FE2ED9
:101DB000012D112D01C02F5FD801C701022E04C0D3
:101DC000880F991FAA1FBB1F0A94D2F737E0B69558
:101DD000A795979587953A95D1F784179507A60704
:101DE000B70748F32093EE042A3018F029702093A7
:101DF000EE042091EE0423FF02C038E201C038E077
:101E000088E190E02770322B0FB6F894A895809364
:101E100060000FBE3093600081E08093ED041F915D
:101E20000F91FF90EF900895A89508958091ED048B
:101E3000882319F08F5F8093ED0488E10FB6F89442
:101E400080936000109260000FBE08958091ED04B1
:101E50008230C0F081508093ED04813099F420915C
:101E6000EE0423FF02C038E201C038E088E190E0D0
:101E70002770322B0FB6F894A895809360000FBEA0
:101E80003093600008958091F2049091F3048130C2
:101E9000910589F08130910530F08230910521F172
:101EA0000397E9F52DC078993AC081E08093F10459
:101EB00081E090E020C0789912C08091F1048F5F9A
:101EC0008093F1048E3159F581E08093F00482E033
:101ED00090E09093F3048093F20481E021C010928B
:101EE000F3041092F2041BC0789B19C081E0809328
:101EF000F10483E090E09093F3048093F2040FC028
:101F00008091F1048F5F8093F104843141F4109249
:101F1000F0041092F3041092F20480E001C082E019
:101F2000992708958091F004992708958091F404E9
:101F30009091F504089508950F931F93CF93DF9325
:101F4000CDB7DEB72A970FB6F894DEBF0FBECDBF70
:101F50001092F3041092F2041092F0046BE577E013
:101F60008E010F5F1F4FC8010E948780C8010E9429
:101F70005A48892BB1F420E033E040E050E06DE5B1
:101F800070E1C8010E940451892B59F48DE497E057
:101F90009F938F9380EE8F930E9410080F900F9065
:101FA0000F902A960FB6F894DEBF0FBECDBFDF911B
:101FB000CF911F910F910895FF920F931F93CF938D
:101FC000DF93CDB7DEB72A970FB6F894DEBF0FBE0A
:101FD000CDBF82E192E00E94EC4D892BB9F480E004
:101FE0000E943C0BF82E40E067E070E080E192E058
:101FF0000E94084E8C01892B51F540E067E070E0AB
:1020000083E392E00E94084E8C0121C00E947E145E
:1020100080E00E943C0BF82EE0912302F091240214
:10202000309729F080E192E01995892B59F4E091DD
:102030004602F0914702309741F083E392E0199510
:10204000892B19F00FEF1FEF02C000E010E08F2D79
:102050000E943C0B01151105C1F48EEA97E09F9395
:102060008F9386EE8F930E94100860E070E0CE019F
:1020700001960E94697A0F900F900F902FEF8F3F7B
:10208000920771F00E94417A0BC08FE797E09F930F
:102090008F9383EE8F930E9410080F900F900F90F4
:1020A000C8012A960FB6F894DEBF0FBECDBFDF91F0
:1020B000CF911F910F91FF9008958091F00480932C
:1020C000EF048091F0048130B9F48091EF0488230B
:1020D00049F581E797E09F938F9386EE8F930E9457
:1020E00010080E94DC0F0F900F900F90892B29F79A
:1020F00080E10E94320AE1CF8823A1F48091EF04AD
:10210000813081F484E697E09F938F9386EE8F93DE
:102110000E9410088091F0048093EF040F900F90BC
:102120000F90CFCF64EF71E080E090E00E948A4A88
:10213000C8CF779A2E982D9A08958093F604089523
:102140008091F604992708958EBD0DB407FEFDCF4A
:1021500008958FEF8EBD0DB407FEFDCF8EB5992784
:1021600008958EBD0DB407FEFDCF8EB59927089555
:10217000779A2E982D9A08959C010097F9F48091F2
:10218000F604882321F481E08DBD81E504C081300F
:1021900021F41DBC80E58CBD25C0823019F481E09E
:1021A0008DBDF8CF8BEB97E09F938F938BE78F9349
:1021B0000E9410080F900F900F9014C0019741F4E7
:1021C00081E08DBD80E58CBD2D9A2E98779808957D
:1021D0001DBC80E58CBD2130310520F02230310559
:1021E00041F404C0779A2D9A2E9A0895779A2E98E2
:1021F0002D98089580E090E0089580E090E00895A3
:1022000080E090E0089540E050E060E070E087EF0B
:1022100094E00E94724D0895CF93DF93CEEFDFEFED
:102220000E94A9108F3F11F42197D1F79927DF91D0
:10223000CF910895CF93DF93CEEFDFEF0E94A910E7
:102240008E3F11F02197D1F79927DF91CF91089513
:10225000DF92EF92FF920F931F93D82E8B017A019A
:1022600082E090E00E94BC108FEF0E94A4108D2DA0
:1022700080640E94A410812F99270E94A410802FAF
:102280000E94A4108F2D99270E94A4108E2D0E94C9
:10229000A41085E90E94A4108FEF0E94A4101F9142
:1022A0000F91FF90EF90DF9008956F927F928F9241
:1022B0009F92AF92BF92CF92DF92EF92FF920F93D5
:1022C0001F93CF93DF935B0169017A013801882462
:1022D00099243AC0A601542F4427550FC701B601CF
:1022E00027E096958795779567952A95D1F781E1AF
:1022F0000E9428110E941A118E3F29F00E94991005
:1023000081E090E026C08501C0E0D0E00E94A910E5
:10231000F80181938F012196F2E0C030DF07B1F719
:1023200080E092E0A80EB91E8FEF0E94A4108FEFFC
:102330000E94A4100E9499100894811C911C08947A
:10234000C11CD11CE11CF11C8614970419F680E015
:1023500090E0DF91CF911F910F91FF90EF90DF9070
:10236000CF90BF90AF909F908F907F906F90089587
:1023700087EF94E00E941F4D08952F923F924F9255
:102380005F926F927F928F929F92AF92BF92CF9205
:10239000DF92EF92FF920F931F93CF93DF93CDB70E
:1023A000DEB728970FB6F894DEBF0FBECDBFF82E6C
:1023B0006B0139014A0118010E940311FF2019F035
:1023C00022E030E0A8C0C801AA27BB27860D971DD0
:1023D000A81DB91D2091FC043091FD044091FE041C
:1023E0005091FF04281739074A075B0728F483E058
:1023F00090E09E838D8302C01E821D828091F9042D
:102400009091FA0497FD04C0E2E0F0E0FE83ED83D2
:1024100096FD7FC02D813E81232B09F092C0DC8286
:10242000CB8272C03FEF2316310409F010F4610132
:1024300003C0C12CA1E0DA2E4B805C8084017301C3
:102440001A82198253C0A701542F4427550FC8017F
:10245000B701E7E09695879577956795EA95D1F767
:1024600088E10E9428110E940C118F3F09F445C099
:102470008EEF0E94A410520118861F82F5018191EF
:102480005F010E94A4102F8138852F5F3F4F38874E
:102490002F832050324091F7E0E0F2E04E0E5F1EB5
:1024A0008FEF0E94A4108FEF0E94A4108FEF0E9464
:1024B000A4105FEFA52EB52E0E94A910882339F431
:1024C0000894A108B108A114B104B9F0F5CF08949B
:1024D000E11CF11C011D111DAB2879F00E9499101F
:1024E00029813A812F5F3F4F3A83298389819A81DD
:1024F0008C159D0509F0A7CF11C00E949910E1E04D
:10250000F0E0FE83ED831DC02114310409F08ACF71
:1025100018C028E030E03E832D8313C0C601AA27EF
:10252000BB27680E791E8A1E9B1E2C183D08DC2CCA
:10253000CC24DD0C8B819C818C0D9D1D9C838B8319
:10254000E3CF0E94B8118D819E8128960FB6F89432
:10255000DEBF0FBECDBFDF91CF911F910F91FF90D6
:10256000EF90DF90CF90BF90AF909F908F907F9033
:102570006F905F904F903F902F9008958F929F9211
:10258000AF92BF92CF92DF92EF92FF920F931F9381
:10259000CF93DF93F82EEB0149015A0168010E94A5
:1025A0000311FF20F1F48091F9049091FA0497FF50
:1025B00018C0C801AA27BB27880D991DAA1DBB1DDD
:1025C0002091FC043091FD044091FE045091FF04E1
:1025D000281739074A075B0708F042C003E010E0FC
:1025E00044C002E010E041C02FEFC216D10409F050
:1025F00010F4E60102C0C0E0D1E08E01A501940113
:10260000B70189EF94E00E9455118C01892B69F57F
:10261000CE01AA27BB27880E991EAA1EBB1ECC1A64
:10262000DD0A80910005909101059C01C29FC001C7
:10263000C39F900DD29F900D1124E80EF91EC11476
:10264000D10491F600E010E010C001E010E0A50117
:102650009401BE0189EF94E00E9455118C0105C0E0
:102660007E010130110559F7F0CF0E94B811C80161
:10267000DF91CF911F910F91FF90EF90DF90CF905E
:10268000BF90AF909F908F900895EF92FF920F931D
:102690001F93182F0E940311112321F0EE24FF2411
:1026A000870108C0E090FC04F090FD040091FE0456
:1026B0001091FF040E94B811C801B7011F910F913A
:1026C000FF90EF9008951F93CF93DF93182F0E94F0
:1026D0000311112319F0C0E0D0E004C0C09100053F
:1026E000D09101050E94B811CE01DF91CF911F91C9
:1026F0000895CF92DF92EF92FF920F931F93CF93A3
:10270000DF93CDB7DEB760970FB6F894DEBF0FBE8C
:10271000CDBF6B010E9403118091F9049091FA04DE
:1027200097FF8AC040E050E060E070E089E00E94DE
:1027300028110E941A118E3F61F089EC97E09F9357
:102740008F9383EF8F930E9410080F900F900F903C
:1027500073C08E010F5F1F4F0E94A910F801819373
:102760008F01CE014196E817F907B1F78FEF0E946C
:10277000A4108FEF0E94A4100E949910EE80FFE039
:10278000EF2221E030E0C90102C0880F991FEA94CE
:10279000E2F77C016F81772763707070762F662770
:1027A000770F770FE885FF27EE0FFF1FEE0FFF1F54
:1027B0006E2B7F2B09851127EA85FF27E370F070C8
:1027C000DF01AA0FBB1FEA2BFB2BAB85BB2786E0E3
:1027D000169507958A95E1F7602B712B6F5F7F4FF8
:1027E00088279927AA0FAB2FAA1FBB0BB195EA2BFD
:1027F000FB2B329602C0220F331FEA95E2F74427E3
:1028000055270E94DC806093FC047093FD04809344
:10281000FE049093FF04F0920105E09200050E94EF
:10282000B81101E010E020E030E040E050E0B601F7
:1028300080E00E94BE1204C00E94B81181E090E0C6
:1028400060960FB6F894DEBF0FBECDBFDF91CF917B
:102850001F910F91FF90EF90DF90CF900895CF934D
:10286000DF93709303056093020550930505409331
:10287000040589E0E9EFF4E011928A95E9F71092F6
:10288000FB0487EF94E00E941F4DC0E0D0E08FEF83
:102890000E94A4102196CA30D105C9F740E050E04B
:1028A00060E070E080E00E9428110E940C118130ED
:1028B00099F4CFEFDFEF07C040E050E060E070E058
:1028C00081E00E9428110E94A910882319F0219705
:1028D00099F702C0CD2B29F40E94991081E090E075
:1028E0000AC00E94991080E090E89093FA048093C7
:1028F000F90480E090E0DF91CF91089510920705F0
:10290000109206050895EF92FF920F931F93CF93B5
:10291000DF93EC017A018B018B8180FD1AC08EEF71
:102920009FEFAFEFBFEFE80EF91E0A1F1B1F2A81B2
:10293000332744275527C801B7010E94DC80AB012B
:10294000BC018A8D9B8DAC8DBD8D480F591F6A1FB0
:102950007B1FCB01BA01DF91CF911F910F91FF90A7
:10296000EF9008958FEF9FEF08958FEF9FEF0895F9
:10297000282F8F3F11F420E006C0882321F09927EB
:102980000E945D81282F822F992787FD90950895B9
:102990008F929F92AF92BF92CF92DF92EF92FF926F
:1029A0000F931F93FC016A017B01838180FF07C0A5
:1029B000CB01BA016F5F7F4F8F4F9F4F69C08081FE
:1029C00082889388A488B58860910A0570910B0568
:1029D0008130A9F5A7019601A7E05695479537954F
:1029E0002795AA95D1F7280D391D4A1D5B1D01E0D9
:1029F00010E081810E94BE1280910A0590910B0522
:102A0000F601EF77F070EE0FFF1FEE0FFF1FE80FDC
:102A1000F91F60817181828193819F706F3F2FEFD9
:102A200072072FEF82072FE0920771F1673F2FEFB8
:102A300072072FEF82072FE0920751F525C0552727
:102A40004F2D3E2D2D2D280D391D4A1D5B1D01E0FA
:102A500010E081810E94BE1280910A0590910B05C1
:102A6000F601F070EE0FFF1FE80FF91F2081318192
:102A70008FEF2F3F380741F08FEF273F380721F0C6
:102A8000B9018827992704C060E070E080E090E0F9
:102A90001F910F91FF90EF90DF90CF90BF90AF907C
:102AA0009F908F9008952F923F924F925F926F92D6
:102AB0007F928F929F92AF92BF92CF92DF92EF92CE
:102AC000FF920F931F93CF93DF93CDB7DEB76A9733
:102AD0000FB6F894DEBF0FBECDBF988B8F877A8B71
:102AE000698B5C8B4B8B18012901FE8AED8AD88E8D
:102AF000CF8AD7011D921D921D921C921397DA0165
:102B00000D900020E9F71197A41BB50BCD010C9691
:102B10006DE070E00E942881F62FF064F983F53EA5
:102B200009F496C18DE0689F900111243B832A83AC
:102B30002F3331050CF08CC17901BF2E1E86CC24B9
:102B4000DD2480C1B201A1018F8598890E94831480
:102B5000688779878A879B87EF85F8898281282F04
:102B600033273D872C8731E023163104410451047B
:102B700079F48081882361F482859385A485B58565
:102B800088879987AA87BB87268137813D872C87CD
:102B9000688479848A849B8442C160910A0570911B
:102BA0000B0501E010E0A4019301EF85F889818114
:102BB0000E94BE1220910A0530910B053F832E839F
:102BC00080910C0590910D059D838C833A8F298F00
:102BD0009E85913019F4E98DFA8D1DC02F89388DAD
:102BE000232B99F5A98DBA8D8C91853E71F188239F
:102BF00061F14BE050E069897A89CD010E94A4809F
:102C0000892B19F5E989FA899385E98DFA8D8385F0
:102C100089238917D1F484899589AA27BB27AC0118
:102C200033272227828D938DAA27BB27282B392B68
:102C30004A2B5B2B848D958DA68DB78DED89FE89F2
:102C400080839183A283B38307C1E98DFA8D838545
:102C50008F3009F0D0C0A080AB1409F0CCC0B6FE14
:102C60000DC0BFEBAB2EAB20AC81BD81AE0DBF1D47
:102C70001C920894E108F108CC80DD80E98DFA8D82
:102C8000868D978D0E94B814F601EE0DFF1D80838E
:102C9000870101501040E98DFA8D848D958D0E9439
:102CA000B814F601E00FF11F808301501040E98D48
:102CB000FA8D808D918D0E94B814F601E00FF11FFE
:102CC000808301501040E98DFA8D868997890E9492
:102CD000B814F601E00FF11F808301501040E98D18
:102CE000FA8D848995890E94B814F601E00FF11FCE
:102CF000808301501040E98DFA8D828993890E946A
:102D0000B814F601E00FF11F808301501040E98DE7
:102D1000FA8D808991890E94B814F601E00FF11FA5
:102D2000808301501040E98DFA8D868597850E9439
:102D3000B814F601E00FF11F808301501040E98DB7
:102D4000FA8D818592850E94B814F601E00FF11F7B
:102D5000808301501040E98DFA8D878190850E9413
:102D6000B814F601E00FF11F808301501040E98D87
:102D7000FA8D858196810E94B814F601E00FF11F4B
:102D8000808301501040E98DFA8D838194810E94E7
:102D9000B814F601E00FF11F808301501040E98D57
:102DA000FA8D818192810E94B814F601E00FF11F23
:102DB0008083BA2CBA9429F078010894E108F108CC
:102DC0001AC0AB89BC890D900020E9F711972B89B7
:102DD0003C89A21BB30BAD01B601C9010E94A480BE
:102DE000892B31F4EA80FB80B98031E03E8703C053
:102DF000EA80FB80B980898D9A8D80969A8F898F21
:102E00008E819F8180509E4FA98DBA8DA817B907DA
:102E100009F0DECE0894611C711C811C911CC30159
:102E2000E885F9858E1B9F0B2C853D8582179307BE
:102E30000CF4B3CEB201A1018F8598890E94C81409
:102E40001B012C01211431044104510409F07ACEF4
:102E500020E030E040E050E0CA01B9016A960FB6C8
:102E6000F894DEBF0FBECDBFDF91CF911F910F91C0
:102E7000FF90EF90DF90CF90BF90AF909F908F909A
:102E80007F906F905F904F903F902F90089584E7D0
:102E900095E00E941F4D089584E795E00E941F4D24
:102EA000089540E050E060E070E084E795E00E9423
:102EB000724D08952F923F924F925F926F927F9240
:102EC0008F929F92AF92BF92CF92DF92EF92FF923A
:102ED0000F931F93CF93DF93CDB7DEB728970FB62D
:102EE000F894DEBF0FBECDBF8C016B015E834D83B6
:102EF0000E9451170115110509F4F6C0F80104816B
:102F0000158118870F830115110509F4EDC06D8136
:102F10007E816115710509F4E7C0F801E484F58448
:102F2000068517852081318142815381E216F3069F
:102F30000407150708F0D2C0CB01AA2797FDA0957A
:102F4000BA2F8E0D9F1DA01FB11F281739074A07E2
:102F50005B0720F42E193F093E832D83EF81F8850E
:102F6000008CF18DE02DFC83EB83DA82C982248012
:102F700035804D805E80ABC0EF81F88560887188B8
:102F8000828893885101CC24DD2440855185628557
:102F900073858B819C810E9483147B018C01C40109
:102FA000B301A60195010E943B81442737FD40955E
:102FB000542F2E0D3F1D401F511F60910A05709127
:102FC0000B0501E010E0EB81FC8181810E94BE12C3
:102FD000892B09F079C0C401B301A60195010E94B3
:102FE0003B816101421453040CF46201CB018C0D4E
:102FF0009D1D281639061CF46101C61AD70A809156
:103000000A0590910B05680F791FA60189819A81A5
:103010000E94B18076010027F7FC0095102FEF8108
:10302000F88524853585468557852E0D3F1D401F23
:10303000511F248735874687578780899189A289C0
:10304000B3898E0D9F1DA01FB11F808B918BA28B0A
:10305000B38B80819181A281B381281739074A07F8
:103060005B0720F081E090E0978B868BEF81F885FD
:103070002089318942895389EB81FC81868D978D26
:10308000A0A1B1A1281739074A075B07A0F0EF817B
:10309000F88540855185628573858B819C810E946E
:1030A000C814EF81F8856087718782879387108ABB
:1030B000118A128A138A69817A816C0D7D1D7A8347
:1030C00069834C185D0803C08DEF9FEF09C0411460
:1030D000510409F051CF0D811E8108C08EEF9FEF82
:1030E000EF81F885958B848B00E010E00E944C17EF
:1030F000C80128960FB6F894DEBF0FBECDBFDF9192
:10310000CF911F910F91FF90EF90DF90CF90BF90E4
:10311000AF909F908F907F906F905F904F903F9077
:103120002F900895EF92FF920F931F93CF93DF9309
:10313000EC010E945117209749F0EC81FD813097F6
:1031400029F0E080F1800281138108C00FEFE02EAA
:103150000FEFF02E0FEF002F0FEF102F0E944C17E4
:10316000C801B701DF91CF911F910F91FF90EF90B0
:103170000895CF93DF93EC010E945117209719F423
:10318000CFEFDFEF0BC08C819D81009711F00E9483
:103190001D45CE010E941D45C0E0D0E00E944C17A5
:1031A000CE01DF91CF9108950F931F938C010E9460
:1031B0005117012B11F4109210050E944C171F910A
:1031C0000F9108952F923F924F925F926F927F924C
:1031D0008F929F92AF92BF92CF92DF92EF92FF9227
:1031E0000F931F93CF93DF93CDB7DEB724970FB61E
:1031F000F894DEBF0FBECDBF182F0E9451178091EB
:10320000080590910905892B41F480E490E00E9423
:10321000AA44909309058093080580910C0590912C
:103220000D05892B41F480E490E00E94AA4490931C
:103230000D0580930C0580910A0590910B05892B53
:1032400059F480E092E00E94AA4490930B05809389
:103250000A05892B09F445C180910805909109055B
:10326000892B09F43EC180910C0590910D05892BA5
:1032700009F437C182E2189FF0011124E25FFA4F8E
:1032800011928A95E9F7E12EFF242701440C551C81
:10329000C70135E0880F991F3A95E1F7480E591E8E
:1032A0002EE035E0420E531EF2011183812F0E9461
:1032B0006313F20195838483812F0E94FA10019792
:1032C00021F4F201838181608383812F0E94FD10AC
:1032D000019721F4F201838182608383F20184816A
:1032E00095818050924019F001E010E0FCC0F2019D
:1032F000838181FF05C020E230E040E050E038C02B
:1033000060910A0570910B0501E010E020E030E0CB
:1033100040E050E08E2D0E94BE128C01892B09F0F6
:10332000E2C0E0910A05F0910B05E250FE4F80816A
:103330009181EE5FF14085559A4A09F0D4C0E65379
:10334000FE4F80819181A281B381EA5CF1400097B8
:10335000A105B10509F4C7C0EA53FE4F20813181B0
:1033600042815381211531054105510509F4BBC046
:1033700060910A0570910B0501E010E08E2D0E940E
:10338000BE1220900A0530900B054EEF51E0240E3E
:10339000351ED1018D919C91E2E0FEEF2E0E3F1E75
:1033A00085559A4A09F09DC0F1018585F201828315
:1033B000F101268937892115310571F0C901AA2744
:1033C000BB2789839A83AB83BC83D2011C9281E0A3
:1033D00090E0A0E0B0E010C0F10124A135A146A129
:1033E00057A129833A834B835C8381E0D2018C937C
:1033F00084A595A5A6A5B7A5F20186879787A08B7A
:10340000B18BF101638574858189928925E0880FEC
:10341000991F2A95E1F7860F971F01970E94148143
:103420003B0188249924E684F78400271127A48C83
:10343000B58CC68CD78CAE0CBF1CC01ED11EF20141
:10344000A28AB38AC48AD58A29813A814B815C8158
:10345000A20EB31EC41ED51EA68AB78AC08ED18EF8
:10346000F10160897727882799270E94DC80F10184
:10347000248D358D468D578DE20EF31E041F151FCA
:10348000E60CF71C081D191DE60EF71E081F191F74
:10349000F201E28EF38E048F158FF1018585992755
:1034A000F20124813581AC01429FC001439F900D00
:1034B000529F900D1124AA27BB27868F978FA0A318
:1034C000B1A3668277828086918629813A814B8179
:1034D0005C81A20EB31EC41ED51EA286B386C4860E
:1034E000D58600E010E00E944C17C80124960FB664
:1034F000F894DEBF0FBECDBFDF91CF911F910F912A
:10350000FF90EF90DF90CF90BF90AF909F908F9003
:103510007F906F905F904F903F902F9008952F92E3
:103520003F924F925F926F927F928F929F92AF9253
:10353000BF92CF92DF92EF92FF920F931F93CF93A0
:10354000DF93CDB7DEB72E970FB6F894DEBF0FBE70
:10355000CDBFFC01892B09F4A1C2848180330CF416
:103560009DC282330CF490C2863409F097C28CC29B
:103570000E94511780911205909113050E94AA4450
:103580009E878D87892B09F489C230900F05832D82
:103590000E9445132B013C0180EE9FEFAFEFBFEF80
:1035A000480E591E6A1E7B1EE6E5F2E09F012C5F65
:1035B0003F4F80819181A281B38184159505A60535
:1035C000B70538F0D9018C919927282E882341F02E
:1035D0000CC02B5F3F4F3596B2E028373B0749F7C9
:1035E0008D859E850E941D4559C29927AA27BB2714
:1035F00089839A83AB83BC83C301B20129813A8159
:103600004B815C810E943B81DA01C90102E0880F95
:10361000991FAA1FBB1F0A95D1F781509E4FAF4F2C
:10362000BF4F19E0B695A795979587951A95D1F74D
:1036300089879A87AB87BC874C015D01880C991CF0
:10364000AA1CBB1C89819A81AB81BC81815A9F4F86
:10365000AF4FBF4F880E991EAA1EBB1E8F559040BC
:10366000A040B04089839A83AB83BC83409112050C
:103670005091130560E070E08D859E850E94BA80B0
:10368000CC24DD24760110C001E010E0A7019601F2
:103690006D857E85832D0E94BD11892B51F4089480
:1036A000C11CD11CE11CF11CC814D904EA04FB04A0
:1036B00059F780E090E00E94817C6D837E838F8348
:1036C0009887409112055091130560E070E08D8558
:1036D0009E850E94BA80AD85BE85A254BE4F1D92C4
:1036E00081E08D938D931D928BE08D931D921C92A2
:1036F0001296EFE3AE2EB12CC12CD12CFD01A1927C
:10370000B192C192D192DF01408251826282738272
:10371000AA5CB140BE87AD877EEFE72E71E0F72E41
:10372000EA0EFB1E65E5862E6AEA962EF701918267
:10373000808201E010E020E030E040E050E0BD0198
:10374000832D0E94BD118C01892B09F005C1409188
:1037500012055091130560E070E08D859E850E94F2
:10376000BA808BEEAD85BE858C9388E5FD018183A3
:1037700080E982830DE4038393E5948384E4858365
:103780001FE41683978385E380878EE2818780E339
:10379000828780E092E094878387258680E290E0AC
:1037A0009787868782E0808B128A118A148A138A0F
:1037B00088EF858B178A168A8FE390E0918F808F30
:1037C0008FEF90E0938F828FED85FE85A48EB58E6E
:1037D000C68ED78E40A251A262A273A289859A8515
:1037E000AB85BC8584A395A3A6A3B7A311A610A6F9
:1037F00013A612A652E0A52EB12CC12CD12CED851A
:10380000FE85A4A6B5A6C6A6D7A681E090E091AB9A
:1038100080AB86E090E093AB82ABE05CFF4F108220
:10382000329689E28193FE87ED876D817E818F815B
:103830009885A30192010E94DC80AD85BE856D93C1
:103840007D938D939D938EE48D931D9390E29D9334
:103850008D9321E42D930D9385E48D939D939D93FA
:103860009D939D9386E48D932D9384E58D9383E3BF
:103870008D9382E38D939D939D939C93A955B04026
:10388000BE87AD87F7019182808201E010E02FE3CF
:1038900030E040E050E0BD01832D0E94BD118C015D
:1038A000892B09F059C001E010E025E430E040E048
:1038B00050E06D857E85832D0E94BD11892B09F016
:1038C000E7C0409112055091130560E070E08D85CE
:1038D0009E850E94BA8081EA9FEFAFEFBFEF480E4E
:1038E000591E6A1E7B1E82E592E5A1E6B1E4ED85D4
:1038F000FE8580839183A283B383EC51FE4F82E7E0
:1039000092E7A1E4B1E681939193A193B193FE87ED
:10391000ED87C301B20129813A814B815C810E940C
:103920003B81AD85BE852D933D934D935D93FD0108
:10393000A082B182C282D382EC5EF140FE87ED8725
:10394000D7018D929C9220E430E040E050E0BF012E
:10395000832D0E94BD118C010115110509F086C04F
:10396000409112055091130560E070E08D859E85B1
:103970000E94BA802D853E8588EF9FEFAFEFBFE0B4
:10398000F90181939193A193B1939F018FEF9FEFE1
:10399000AFEFBFE0ED85FE8584839583A683B78373
:1039A000F90184839583A683B78301E010E02FE5B6
:1039B00030E040E050E06D857E85832D0E94BD1192
:1039C0008C01892B09F052C0C984DA84EB84FC8411
:1039D0008FE590E0A0E0B0E0C80ED91EEA1EFB1E05
:1039E00001E010E0A70196016D857E85832D0E9480
:1039F000BD11892B09F04CC040911205509113055F
:103A000060E070E08D859E850E94BA8095E4AD856A
:103A1000BE859C9324E5FD01218388E48283938302
:103A200082E584838EE4858385E58683278380E22F
:103A300080878187828788E08387158A148A138E1E
:103A4000128EED85FE85148E158E168E178E898545
:103A50009A85AB85BC85C80ED91EEA1EFB1EA70140
:103A60009601BF01832D0E94BD118C018D859E851D
:103A70000E941D450E944C17012B81F4832D0E944A
:103A8000E218009769F00AC06050704139F470CDB7
:103A90008D859E850E941D450E944C178FEF9FEFDC
:103AA0002E960FB6F894DEBF0FBECDBFDF91CF913B
:103AB0001F910F91FF90EF90DF90CF90BF90AF904C
:103AC0009F908F907F906F905F904F903F902F903E
:103AD00008950F931F93CF93DF938C0180E092E0C2
:103AE0000E94AA44EC01892B31F0802F0E94E21839
:103AF000CE010E941D45DF91CF911F910F91089536
:103B0000EF92FF920F931F93CF93DF93FC0180916D
:103B10000605909107050097A9F58281863409F082
:103B20003FC083818134E1F584818435C9F5848582
:103B300095850797A9F537C044ED58E169E67DE121
:103B400080E090E00E942F148C01892B19F00EEF79
:103B50001FEF14C0B70180E090E00E947913C0E02D
:103B6000D0E08C2F0E94E2182196C330D105C9F70E
:103B700081E090E09093070580930605C7010E94BD
:103B80001D451CC0019761F48281863449F483810C
:103B90008D3431F48481803319F400E010E00EC0DC
:103BA0000FEF1FEF0BC00E94471780E092E00E94CA
:103BB000AA447C01892B09F0BFCFEFCFC801DF9168
:103BC000CF911F910F91FF90EF9008952F923F9208
:103BD0004F925F926F927F928F929F92AF92BF921D
:103BE000CF92DF92EF92FF920F931F93CF93DF93C9
:103BF000CDB7DEB7A6970FB6F894DEBF0FBECDBF28
:103C00009EA38DA34B018091060590910705892BFA
:103C100021F48DA19EA10E94801D0E9451176090E9
:103C20000805709009058DA19EA1009709F422C195
:103C3000FC01848180330CF41DC182330CF41DC15E
:103C4000863409F017C119C1F4018081882309F471
:103C500011C18AE190E00E94AA445C018091200594
:103C600090912105A0912205B09123050097A1050F
:103C7000B10509F41AC1A114B10409F4FBC0F4019F
:103C800080818E3209F4E7C08AE1F50111928A95AC
:103C9000E9F720901C0530901D0540901E055090BE
:103CA0001F05F40180818F3209F006C102C1FFE3D4
:103CB000EF16F1040CF003C183010E0D1F1D9927AF
:103CC00087FD90950E945D81F80180830894E11C36
:103CD000F11C0894811C911CF40180818F3209F43D
:103CE000D2C08C3509F4CFC0882309F7CCC06EE26E
:103CF00070E0C3010E94C180009721F409301105D2
:103D0000D8F50BC0DC011196FD0101900020E9F708
:103D10003197EA1BFB0B349778F58E010B5F1F4F31
:103D200080E2F80111928A95E9F748E050E060E2FC
:103D300070E0C8010E94BA8043E050E060E270E0A9
:103D4000CE010D960E94BA80D801F301930104C000
:103D50008D932F5F3F4F319680818E3219F08823EB
:103D6000B9F70DC0F901DE011D9601C08D93818167
:103D700031968823D9F703C021E030E002C020E06B
:103D800030E0F40180818F3209F448C08C3509F4A9
:103D900045C0882309F05FC080E2888B80911105BF
:103DA00080FD8DC08EE0882E85E0982E69017E0111
:103DB0000894E11CF11C92018101A301BE016B5F1B
:103DC0007F4FC4010E9453159B01AC016115710521
:103DD0008105910509F473C089819A81AB81BC8109
:103DE000F50180839183A283B38324833583468343
:103DF0005783208731874287538714861586168616
:103E00001786108A118A128A138A918E808E158ADB
:103E1000148A178A168A80E090E053C080E1888B6C
:103E20008091110580FD4BC069017E010894E11C61
:103E3000F11C92018101A301BE016B5F7F4F8EE0F7
:103E400095E00E9453151B012C0161157105810538
:103E50009105A9F12EC0C5010E941D450BC086E049
:103E600090E00E94AA448C01009771F5C5010E9460
:103E70001D4533C00FEF1FEF30C080911005882320
:103E800009F0E2CEF7CFE60CF71CF7011082F30140
:103E900001900020E9F78F01015010400619170921
:103EA0000D30110508F068CF22CFA114B10499F6A6
:103EB000E1CF0894811C911CEE24FF240DCF81E0FA
:103EC00090E0019761F6C7CFFC01118210828DA1AD
:103ED0009EA193838283B582A4820E944C17C8015D
:103EE000A6960FB6F894DEBF0FBECDBFDF91CF917F
:103EF0001F910F91FF90EF90DF90CF90BF90AF9008
:103F00009F908F907F906F905F904F903F902F90F9
:103F100008958FEF9FEF08952F923F924F925F92F7
:103F20006F927F928F929F92AF92BF92CF92DF92C9
:103F3000EF92FF920F931F93CF93DF935C016B017E
:103F40004A0129013801170181E090E00E94BC106C
:103F5000C0E0D0E07601850109C0F80181918F01B0
:103F60000E94B110F70181937F012196C815D905F0
:103F7000A4F3C0E0D0E07301820109C0F80181918F
:103F80008F010E94B110F70181937F012196C21524
:103F9000D305A4F30E94991080E090E0DF91CF91C7
:103FA0001F910F91FF90EF90DF90CF90BF90AF9057
:103FB0009F908F907F906F905F904F903F902F9049
:103FC0000895EF92FF920F931F93CF93DF93CDB796
:103FD000DEB722970FB6F894DEBF0FBECDBF87EDD8
:103FE00089838FEF8A83EE24FF2400E010E020E035
:103FF00030E042E050E0CE010196BC010E948C1FEF
:10400000892B19F08FEF90E002C08A8199272296C0
:104010000FB6F894DEBF0FBECDBFDF91CF911F91D9
:104020000F91FF90EF9008950F931F930E94E11F4F
:104030000E94E11F082F60E070E02091760530912A
:1040400077050EC06F5F7F4F80858023918589172C
:1040500039F48AE0189F900111242C583D4F18C064
:10406000162F462F5527FA01EE0FFF1FCA01A3E0B6
:10407000880F991FAA95E1F7E80FF91FEC58FD4F3B
:1040800080819181A281B3810097A105B105D1F60C
:104090003093770520937605CA011F910F910895FB
:1040A000EF92FF920F931F93CF93DF937B018C01CD
:1040B000EA0119C0209731F461E070E080E090E0FF
:1040C0000E948A4A0894E108F108010911098FEF5A
:1040D000E8168FEFF8068FEF08078FEF180719F42F
:1040E0008FEF9FEF06C00E94E11F87FFE3CF80E0C4
:1040F00090E0DF91CF911F910F91FF90EF90089585
:104100005F926F927F928F929F92AF92BF92CF9267
:10411000DF92EF92FF920F931F93CF93DF93582E6E
:104120004A015B01E90138018701293031051CF0A2
:104130008FEF9FEF23C0A90160E070E088E795E072
:104140000E94BA805092780581149104A104B104B0
:1041500069F0C501AA27BB2780937905BB27AB2D42
:104160009A2D892D80937A0580927B0576019301A3
:10417000AE0168E775E0CB010E948C1FDF91CF9103
:104180001F910F91FF90EF90DF90CF90BF90AF9075
:104190009F908F907F906F905F9008958F929F92E5
:1041A000AF92BF92CF92DF92EF92FF920F931F9345
:1041B000CF93DF934B015C018A016901C9010E9421
:1041C000A67CEC01009719F40FEF1FEF36C07C01BD
:1041D00024E030E040E050E060E070E084E80E94DD
:1041E0008020892B29F5E0917605F09177050680EE
:1041F00004C0880C991CAA1CBB1C0A94D2F7CC24BE
:10420000DD24EE24FF2400E010E024E030E0B501DE
:10421000A40183E80E948020892B51F441E050E002
:1042200068EE73E080E090E00E9450208C0102C0B4
:104230000FEF1FEFCE010E94A37CC801DF91CF9149
:104240001F910F91FF90EF90DF90CF90BF90AF90B4
:104250009F908F900895CF92DF92EF92FF920F93ED
:104260001F93E0917605F0917705068004C0660FF4
:10427000771F881F991F0A94D2F769017A018A0172
:1042800028E030E0AB01BC0188EE0E9480201F9145
:104290000F91FF90EF90DF90CF900895CF92DF9233
:1042A000EF92FF920F931F93AA27BB27CC24DD2404
:1042B000EE24FF2400E010E024E030E0AC01BD017A
:1042C00081E80E9480201F910F91FF90EF90DF9076
:1042D000CF90089560957095809590952091800578
:1042E0003091810540918205509183052623372323
:1042F00048235923209380053093810540938205FC
:104300005093830580E090E00895AF92BF92CF92E2
:10431000DF92EF92FF920F931F93CF93DF93CDB76E
:10432000DEB722970FB6F894DEBF0FBECDBF9B015C
:104330005A01492F552749838A83CC24DD247601ED
:10434000850142E050E0BE016F5F7F4F87E50E942C
:10435000065E8A159B0519F480E090E002C08FEF9D
:104360009FEF22960FB6F894DEBF0FBECDBFDF9150
:10437000CF911F910F91FF90EF90DF90CF90BF9062
:10438000AF900895AF92BF92CF92DF92EF92FF92DB
:104390000F931F93CF93DF93CDB7DEB722970FB65E
:1043A000F894DEBF0FBECDBF9B015A0119828A83EC
:1043B000CC24DD2476018A0142E050E0BE016F5F2B
:1043C0007F4F8FE60E94065E8A159B0519F480E0F8
:1043D00090E002C08FEF9FEF22960FB6F894DEBFF9
:1043E0000FBECDBFDF91CF911F910F91FF90EF9046
:1043F000DF90CF90BF90AF9008950F931F93CF930E
:10440000DF93CDB7DEB721970FB6F894DEBF0FBEAE
:10441000CDBF8C0141E050E0BE016F5F7F4F8FE365
:104420000E94C221892BE9F489819927AA27BB27F9
:10443000209180053091810540918205509183053E
:10444000822B932BA42BB52B809380059093810511
:10445000A0938205B0938305F80180839183A283A2
:10446000B383809180059091810521960FB6F894D1
:10447000DEBF0FBECDBFDF91CF911F910F91089589
:10448000CF93DF93CDB7DEB724970FB6F894DEBF96
:104490000FBECDBF80E00E94025D009721F4CE01E7
:1044A00001960E94FD2124960FB6F894DEBF0FBE40
:1044B000CDBFDF91CF910895EF92FF920F931F939D
:1044C000CF93DF93CDB7DEB728970FB6F894DEBF52
:1044D0000FBECDBF8C0148E050E0BE016F5F7F4F43
:1044E00080E30E94C2217C01892B09F073C02981DD
:1044F000822F82958F706AE0869FC00111242F70F1
:10450000820F911DD8018D939C932A81822F8295D1
:104510008F70869FC00111242F70820F911DF801AA
:10452000938382832B813327C9018F739070B4E00A
:1045300095958795BA95E1F7AC01A3E0440F551F17
:10454000AA95E1F7880F991F840F951F2F7030707F
:10455000820F931F958384832C81822F82958F7085
:10456000869FC00111242F70820F911D978386832F
:104570002D81822F82958F70869FC00111242F700C
:10458000820F911D0197918780878E81282F229518
:104590002F70269FA001112499278F7090708C593D
:1045A0009F4F480F591F538742872885822F829536
:1045B0008F70869FC00111242F70820F911D4A9722
:1045C00024F04C595F4F538742878F819927F80118
:1045D00095878487C70128960FB6F894DEBF0FBE73
:1045E000CDBFDF91CF911F910F91FF90EF90089574
:1045F000AF92BF92CF92DF92EF92FF920F931F93F1
:10460000CF93DF93CDB7DEB723970FB6F894DEBF15
:104610000FBECDBF19822FE32A835E010894A11C2F
:10462000B11C892BA1F082E08B83CC24DD247601A0
:1046300000E010E020E030E043E050E0B5018FE61C
:104640000E94065E009789F486E08B8306C01B8279
:10465000CC24DD24760100E010E020E030E043E0EF
:1046600050E0B5018FE60E94065E23960FB6F894DF
:10467000DEBF0FBECDBFDF91CF911F910F91FF9095
:10468000EF90DF90CF90BF90AF900895AF92BF9220
:10469000CF92DF92EF92FF920F931F93CF93DF930E
:1046A000CDB7DEB721970FB6F894DEBF0FBECDBFF2
:1046B00013E1A12EB12C0FC061E070E080E090E02A
:1046C0000E948A4A0894A108B108A114B10419F4FF
:1046D0008FEF9FEF14C0CC24DD24760101E010E0C1
:1046E0009E012F5F3F4F40E050E060E070E087E5C3
:1046F0000E94065E8F5F9F4FF9F280E090E0219666
:104700000FB6F894DEBF0FBECDBFDF91CF911F91E2
:104710000F91FF90EF90DF90CF90BF90AF900895F2
:104720002F923F924F925F926F927F928F929F92C1
:10473000AF92BF92CF92DF92EF92FF920F931F93AF
:10474000CF93DF933C014A012B0100E010E046C00B
:10475000C3018F73907020E430E0281B390B5401A3
:104760002815390508F4590182E0282E312C2A0C2D
:104770003B1CC1010E94A67CEC01892BA1F1872D75
:10478000992788836982A501B201CE0102960E9411
:10479000B18081E090E00E94F8228C01892B31F5F4
:1047A000CC24DD24760100E010E020E030E0A1011F
:1047B000BE0187E50E94065E8C01CE010E94A37CAB
:1047C00001151105B1F40E9446238C01892B89F44F
:1047D0008A189B086A0C7B1C4A0C5B1C8114910490
:1047E00009F0B6CF06C00FEF1FEF03C0CE010E9445
:1047F000A37C80E090E00E94F822C801DF91CF9175
:104800001F910F91FF90EF90DF90CF90BF90AF90EE
:104810009F908F907F906F905F904F903F902F90E0
:1048200008958F929F92AF92BF92CF92DF92EF92B4
:10483000FF920F931F93CF93DF934C015B01EA012B
:1048400081E090E00E94F8228C01892BC1F4CC24F5
:10485000DD24760100E010E020E030E0AE01B5019B
:104860008FE60E94065E8C01892B29F4892819F0B5
:104870000E9446238C0180E090E00E94F822C8014B
:10488000DF91CF911F910F91FF90EF90DF90CF902C
:10489000BF90AF909F908F900895EF92FF920F93EB
:1048A0001F93CF93DF93CDB7DEB72A970FB6F89457
:1048B000DEBF0FBECDBF8B017A012AE0FE0131962B
:1048C00011922A95E9F723E0880F991F2A95E1F7BD
:1048D0008A836115710509F47AC040FF12C0FB019B
:1048E00040815181842F6AE00E94FB80282F22950D
:1048F000207FCA016AE070E00E942881280F2068AA
:104900002B83E1FE12C0F80142815381842F6AE0BB
:104910000E94FB80282F2295207FCA016AE070E068
:104920000E942881280F20682C83E2FE12C0F80123
:1049300044815581842F6AE00E94FB80282F2295B4
:10494000207FCA016AE070E00E942881280F206859
:104950002D83E3FE12C0F80146815781842F6AE05F
:104960000E94FB80282F2295207FCA016AE070E018
:104970000E942881280F20682E83E4FE14C0F801CD
:1049800040855185842F8F5F6AE00E94FB80282F2D
:104990002295207FCA0101966AE070E00E9428817A
:1049A000280F20682F83E7FE12C0F8014485558543
:1049B000842F6AE00E94FB80282F2295207FCA0165
:1049C0006AE070E00E942881280F206829874AE069
:1049D00050E0BE016F5F7F4F81E090E00E941124A4
:1049E0002A960FB6F894DEBF0FBECDBFDF91CF91F0
:1049F0001F910F91FF90EF900895EF92FF920F9308
:104A00001F93CF93DF93CDB7DEB728970FB6F894F7
:104A1000DEBF0FBECDBF7B018A01FA011182108279
:104A200092E1FB0111929A95E9F748E050E0BE014E
:104A30006F5F7F4F880F880F880F0E94C221BC01D3
:104A4000892B09F09FC0298127FF20C0F8018081B0
:104A500091818160918380833327C9018F77907022
:104A6000F4E095958795FA95E1F7AC01E3E0440F02
:104A7000551FEA95E1F7880F991F840F951F2F7036
:104A80003070820F931FF701918380833A8137FF43
:104A900013C0F80180819181826091838083832F8C
:104AA00082958F702AE0829FC00111243F70830F8E
:104AB000911DF701938382832B8127FF20C0F8018A
:104AC000808191818460918380833327C9018F77AE
:104AD0009070A4E095958795AA95E1F7AC01F3E075
:104AE000440F551FFA95E1F7880F991F840F951F02
:104AF0002F703070820F931FF701958384833C8160
:104B000037FF13C0F8018081918188609183808391
:104B1000832F82958F702AE0829FC00111243F70FD
:104B2000830F911DF701978386833D8137FF14C062
:104B3000F80180819181806191838083832F8295A8
:104B40008F702AE0829FC00111243F70830F911D56
:104B50000197F701918780873F8137FF13C0F801E4
:104B600080819181806891838083832F82958F706B
:104B70002AE0829FC00111243F70830F911DF7012D
:104B800095878487CB0128960FB6F894DEBF0FBEB9
:104B9000CDBFDF91CF911F910F91FF90EF900895BE
:104BA0000F931F93CF93DF93CDB7DEB72A970FB63E
:104BB000F894DEBF0FBECDBF8C018AE0FE013196B6
:104BC00011928A95E9F70115110509F481C080E376
:104BD0008A83F80140815181842F6AE00E94FB8022
:104BE000282F2295207FCA016AE070E00E94288168
:104BF000280F2B8342815381842F6AE00E94FB801F
:104C0000282F2295207FCA016AE070E00E94288147
:104C1000280F2C8344815581842F6AE00E94FB80F9
:104C2000282F2295207FCA016AE070E00E94288127
:104C3000280F20682D8346815781842F6AE00E94C7
:104C4000FB80282F2295207FCA016AE070E00E9435
:104C50002881280F2E8340855185842F8F5F6AE03D
:104C60000E94FB80282F2295207FCA0101966AE0CE
:104C700070E00E942881280F2F8342855385443697
:104C800051059CF0842F84566AE00E94FB80282FF7
:104C90002295207FCA01845690406AE070E00E940D
:104CA0002881280F288780E20FC0842F6AE00E94A5
:104CB000FB80282F2295207FCA016AE070E00E94C5
:104CC0002881280F288789E18A87F80184858987C8
:104CD0004AE050E0BE016F5F7F4F80E090E00E94AD
:104CE00011242A960FB6F894DEBF0FBECDBFDF9118
:104CF000CF911F910F910895109248081092470884
:104D0000E091C802F091C90280E090E01995089501
:104D1000CF92DF92EF92FF920F931F93CF93DF9387
:104D20008C01CB016A01E0914708F091480864ECDE
:104D3000E62E62E0F62E9F0153E0220F331F5A95B4
:104D4000E1F7EE0FFF1FE20FF31FEE0DFF1D0084D2
:104D5000F185E02D19951093480800934708C80184
:104D600033E0880F991F3A95E1F7000F111F800F6C
:104D7000911FE80EF91EE701EC81FD81C60119952E
:104D8000DF91CF911F910F91FF90EF90DF90CF9027
:104D900008951F93CF93DF93EC01E0914708F091C2
:104DA0004808CF0113E0880F991F1A95E1F7EE0F1D
:104DB000FF1FE80FF91FEC53FD4F0680F781E02D30
:104DC000AE0168E876E280E090E019950E94B909AA
:104DD000182F883819F10E943A270197E1F4CE0183
:104DE0000E945827E0914708F0914808CF01A3E0BE
:104DF000880F991FAA95E1F7EE0FFF1FE80FF91F23
:104E0000EC53FD4F0280F381E02D68E876E2812FBC
:104E10009927199503C0CE010E946D270E943A2759
:104E20000197F9F4CE010E944D27888199819F93C3
:104E30008F938A819B819F938F938C819D819F9378
:104E40008F938FED97E09F938F9386EC8F930E94C3
:104E500010088DB79EB709960FB6F8949EBF0FBE87
:104E60008DBFDF91CF911F91089590938505809319
:104E7000840508958091840590918505089580E0CA
:104E80000E948F0A1092850510928405809149082E
:104E900090914A080E94A37C0895609149087091FE
:104EA0004A080E9437290B9714F00E943F27089563
:104EB0000F931F938C0182E190E00E94A67C909357
:104EC0004A0880934908DC01F80182E101900D92C3
:104ED0008150E1F71F910F9108950F931F938C015B
:104EE00081E00E948F0A81E090E090938505809395
:104EF000840582E190E00E94A67C90934A0880930A
:104F00004908DC01F80182E101900D928150E1F73E
:104F10001F910F910895FB01099739F440E050E08B
:104F200060E070E083E090E01995089580914B086F
:104F300090914C08892B21F010924C0810924B084C
:104F4000089510924E0810924D0810924C0810923D
:104F50004B08089510924C0810924B0810924E087E
:104F600010924D0884E693E00E94DD0A08950895AA
:104F70000895089508950895089508950895089549
:104F80001092500810924F0808950F931F93CF93DB
:104F9000DF93CDB7DEB728970FB6F894DEBF0FBE0C
:104FA000CDBFFC0124813581C9016AE070E00E9417
:104FB000288169832A8322813381C9016AE070E0F4
:104FC0000E9428816C832D8320813181C9016AE090
:104FD00070E00E9428816F83288700E010E0023093
:104FE000110519F00530110511F48AE309C0FE011D
:104FF000E00FF11F81816AE00E940781892F805DA7
:105000000E94D80A0F5F1F4F0830110541F72896FC
:105010000FB6F894DEBF0FBECDBFDF91CF911F91C9
:105020000F91089589E198E09F938F9386EC8F9379
:105030000E9410081092500810924F080F900F9085
:105040000F900895CF93DF93EA0180914F089091DC
:10505000500801969093500880934F08843691052C
:10506000A4F089EF97E09F938F9386EC8F930E9433
:1050700010081092500810924F080E94D30ACE01D7
:105080000E94C5270F900F900F90DF91CF91089548
:105090000895089508950895089508950895089528
:1050A0000895089508950895089508950895089518
:1050B0000895089508950895089508950895089508
:1050C00008950895089508950895089508950895F8
:1050D00008950895089508950895089508950895E8
:1050E00008950895089508950895089508950895D8
:1050F0001F9385E998E09F938F9388E598E09F93AD
:105100008F9316EC1F930E9410086091A408709171
:10511000A5088091A6089091A7080E94DF3B9F9365
:105120008F938CE498E09F938F931F930E941008B5
:105130006091A8087091A9088091AA089091AB0885
:105140000E94DF3B9F938F9380E498E09F938F931F
:105150001F930E9410086091AC087091AD08809177
:10516000AE089091AF080E94DF3B9F938F9381E33D
:1051700098E09F938F931F930E9410088DB79EB75E
:1051800044960FB6F8949EBF0FBE8DBF1F91089531
:105190001F93CF93DF93CDB7DEB726970FB6F89462
:1051A000DEBF0FBECDBF45E060E073EC8AEF93E059
:1051B0000E94084E892B79F08EEA98E09F938F9396
:1051C00083EC8F930E941008109285031092840341
:1051D0000F900F900F90DE011196EFE8F3E086E05C
:1051E00001900D928150E1F740E157E260E070E0FC
:1051F00086E893E00E941C2B892B21F182E998E03C
:105200009F938F9313EC1F930E94100840E050E08F
:10521000BE016F5F7F4F86E893E00E941C2B0F90CA
:105220000F900F90892B71F08AE798E09F938F93EE
:105230001F930E94100810928503109284030F9010
:105240000F900F9084E698E09F938F9386EC8F9356
:105250000E9410080F900F900F9026960FB6F894AA
:10526000DEBF0FBECDBFDF91CF911F910895CF93C9
:10527000DF93FC01DB01808191812D913C91821BA8
:10528000930B22813381EB014A815B81241B350B17
:105290004CE350E0B901649F9001659F300D749F0D
:1052A000300D1124820F931F248135814C815D8143
:1052B000241B350B40E15EE0E901C49F9001C59FCE
:1052C000300DD49F300D1124820F931FDF91CF91A9
:1052D0000895EF92FF920F931F93CF93DF938C016A
:1052E0007B01EC01EA81FB81EB018A819B81E81B58
:1052F000F90BD8018D919C9128813981821B930BE8
:105300006CE370E00E942881E60FF71FE8018C81B2
:105310009D81E7012C813D81821B930B2CE330E0C2
:10532000AC01429FC001439F900D529F900D1124EC
:105330008E0F9F1FDF91CF911F910F91FF90EF90E4
:105340000895CF93DF93FB01EC018A819B81228139
:105350003381821B930BDF91CF9108958093A80333
:1053600008950E94084C20E033E040E050E06AE1FC
:1053700076E083EA93E00E9404518EEF0E94AE48EB
:105380000E9432490E9479482091A8032F3FC1F31F
:1053900093B783B7817F822B83BF83B7816083BF3D
:1053A000889583B78E7F83BF83B7817F9E70892B5B
:1053B00083BFE6CFCF93DF93DC01FC0187E38193CA
:1053C00093E0ED019983DF01119681E08183FD0176
:1053D000918386E0828385E090E0DF91CF9108950C
:1053E00080918B059927089580918C0590918D056A
:1053F00010928D0510928C05089520E030E0809188
:105400008B05853011F421E030E0C9010895DF9269
:10541000EF92FF920F931F93CF93DF93D62E7901D4
:105420008A010E94EC4DEC01892B51F08B85833071
:1054300039F4EF85F889309719F08081863049F08A
:1054400081E190E090938D0580938C058FEF9FEF25
:1054500035C00E94E04A609396057093970580934B
:10546000980590939905E0929205F0929305009328
:10547000940510939505D0928B05809189059091A4
:105480008A05892B69F420E032E0AE016EE87FE204
:1054900089EA93E00E94045190938A0580938905DC
:1054A0008EE895E00E941F4D40E050E060E070E023
:1054B00080E995E00E94724D80E090E0DF91CF910D
:1054C0001F910F91FF90EF90DF900895FC019A01DA
:1054D000AB0180918B05882349F083E090E09093A5
:1054E0008D0580938C058FEF9FEF089568E0CF01C5
:1054F0000E94072A0895FC019A01AB0180918B0557
:10550000853049F083E090E090938D0580938C0581
:105510008FEF9FEF089569E0CF010E94072A089559
:10552000CF92DF92EF92FF920F931F93CF93DF936F
:10553000FC0184E292E0DF011D920197E9F781E02E
:105540008083818386E08283DF015C96CEE9D8E0A8
:1055500009900D928150E1F7248335834683578368
:105560000C2CCD2CD02CD186C086E486F5860687FF
:105570001787DF01A451BF4F93E6FD01919382E8A5
:10558000ED018983DF01119683E58183FD01319669
:10559000ED019983DF01119685E3818381E0FD01AF
:1055A0008183628387E090E0DF91CF911F910F911B
:1055B000FF90EF90DF90CF900895CF93DF93CDB71A
:1055C000DEB722970FB6F894DEBF0FBECDBFDC0169
:1055D0005A834983FC0161939F0182E0FD0181832D
:1055E00089819A81082E892F902DF90192838183D8
:1055F00084E090E022960FB6F894DEBF0FBECDBFD8
:10560000DF91CF9108950F931F93CF93DF93DC0128
:10561000CA01022FFD016193ED0129831127A80121
:10562000BC01CF0101960E94B180C8010296DF91B2
:10563000CF911F910F9108954F925F926F927F9239
:105640008F929F92AF92BF92CF92DF92EF92FF9292
:105650000F931F93CF93DF93CDB7DEB760970FB64D
:10566000F894DEBF0FBECDBF3C012B012D873E87D6
:105670004F87588B0E94EC4D5C01009769F0FC014C
:105680008385833049F4C784D088C114D10421F0C4
:10569000F6018081863019F081E190E039C08E01F9
:1056A000095F1F4FF80111928A95E9F746E050E033
:1056B0006FEF70E04E010894811C911CC4010E94A0
:1056C000BA8076010894E11CF11C46E050E0B80174
:1056D000C7010E94A480892B41F046E050E0B4014C
:1056E000C7010E94A480892B31F54114510449F06F
:1056F000AEE9B8E0F20186E001900D92815069F0C8
:10570000FBCFC3010E94143E892B39F082E090E068
:1057100090938D0580938C0599C0F701AEE9B8E0B0
:1057200086E00D9001928150E1F764EF71E080E036
:1057300090E00E948A4A2091B0083091B1084091CF
:10574000B2085091B308E090A808F090A908009121
:10575000AA081091AB08DA01C9018E219F21A0236C
:10576000B1230097A105B10549F02093A408309317
:10577000A5084093A6085093A70858C02D853E85DC
:105780004F85588961E0C3010E94072A892B09F0DF
:105790005DC080918B05853031F5E0918705F091F2
:1057A0008805C584D684E784F08805811681278121
:1057B00030854181528163817481C5010E944B3CD7
:1057C000E0918705F0918805E588F6880789108DB6
:1057D000218932894389548960E070E080E090E05B
:1057E0000E94B33630C0F60187819085A185B285CD
:1057F0000097A105B10539F52091A4083091A508BD
:105800004091A6085091A708E090A808F090A90838
:105810000091AA081091AB08DA01C9018E219F21DD
:10582000A023B1230097A105B10581F0A090AC0899
:10583000B090AD08C090AE08D090AF086EE978E0A7
:10584000C3010E94463D80E090E002C08FEF9FEFD1
:1058500060960FB6F894DEBF0FBECDBFDF91CF913B
:105860001F910F91FF90EF90DF90CF90BF90AF907E
:105870009F908F907F906F905F904F900895CF93FF
:10588000DF93EC01892B79F089A59AA5009711F097
:105890000E94A37C8BA59CA5009711F00E94A37C7D
:1058A000CE010E94A37CDF91CF910895EF92FF92E9
:1058B0000F931F93CF93DF938C017B01EA01DC01EF
:1058C0008D919C91009711F00E94A37CCE010196CE
:1058D0000E94A67CF80191838083009761F0209755
:1058E00021F0AE01B7010E94B180D801ED91FC9189
:1058F000EC0FFD1F1082DF91CF911F910F91FF9050
:10590000EF9008954F925F927F928F929F92AF9205
:10591000BF92CF92DF92EF92FF920F931F93CF939C
:10592000DF938C017B018DE290E00E94A67CEC016C
:10593000009709F420C12C018DE2FE0111928A9595
:10594000E9F780EC98EAA0E0B0E08DA39EA3AFA3B6
:10595000B8A7F80180899189A289B38989839A833C
:10596000AB83BC8380EFC82ED12CC00ED11E00E1CA
:10597000A02E0FEFB02EAE0CBF1CEAC0662339F488
:105980000894C11CD11C0894A108B108E1C0F6011B
:105990007180872C9924A814B9040CF4E9C06533EC
:1059A00041F4F1E07F1609F0E3C0F60182818883BB
:1059B000C3C06C3039F4B6016E5F7F4FA401CE01D5
:1059C000899608C06F3049F4B6016E5F7F4FA4011D
:1059D000CE018B960E94562CAFC0F3E0F71508F06D
:1059E000ABC0F601228183819927AA27BB27EE2429
:1059F000F82E092F1A2FE20EF11C011D111D258111
:105A0000332744275527522F4427332722278481C1
:105A10009927AA27BB27DC0199278827280F391F38
:105A20004A1F5B1FE20EF31E041F151F613029F48D
:105A3000ED82FE820F8318877FC06C3129F4E986DE
:105A4000FA860B871C8778C0633029F4ED86FE86C2
:105A50000F87188B71C0663009F041C0E98AFA8A55
:105A60000B8B1C8BF7E0F71508F066C0F60126815A
:105A70003327442755272D8B3E8B4F8B588F87819B
:105A80009927AA27BB27BA2FA92F982F8827820FDB
:105A9000931FA41FB51F8D8B9E8BAF8BB88F208556
:105AA000332744275527A90133272227280F391FD9
:105AB0004A1F5B1F2D8B3E8B4F8B588F81859927FB
:105AC000AA27BB27B82FAA2799278827280F391F6D
:105AD0004A1F5B1F2D8B3E8B4F8B588F2DC066331B
:105AE00029F4E98EFA8E0B8F1C8F26C06A3359F485
:105AF0000E2CE12E102D0F2CF02E002DED8EFE8E93
:105B00000F8F18A319C06B3359F40E2CE12E102DF2
:105B10000F2CF02E002DE9A2FAA20BA31CA30CC09F
:105B2000633351F40E2CE12E102D0F2CF02E002D8E
:105B3000EDA2FEA20FA318A7C70CD11C82E090E033
:105B4000C80ED91EA818B908EEEFFFEFAE0EBF1EA3
:105B5000F60160816F3F29F01A141B040CF40ECF7C
:105B600007C08881823051F0853041F0863031F0B5
:105B7000CE010E943F2C4424552439C08D8D9E8D2A
:105B8000AF8DB8A10097A105B10561F48DA19EA1CB
:105B9000AFA1B8A5B695A795979587958D8F9E8F40
:105BA000AF8FB8A389A19AA1ABA1BCA10097A10511
:105BB000B105E9F48D8D9E8DAF8DB8A19C01AD012D
:105BC0005695479537952795280F391F4A1F5B1F14
:105BD00062E0B695A795979587956A95D1F7280FB6
:105BE000391F4A1F5B1F29A33AA34BA35CA3C20121
:105BF000DF91CF911F910F91FF90EF90DF90CF90A9
:105C0000BF90AF909F908F907F905F904F9008953E
:105C1000EF92FF920F931F93DC01F801E20FF31F45
:105C2000E451FF4F8FEF808303511F4F81E00C320F
:105C3000180710F40CE211E07801890123E430E048
:105C4000CD010E949F3A97FD03C080E090E008C01C
:105C500083E190E090938D0580938C058FEF9FEF0B
:105C60001F910F91FF90EF9008952F923F924F92C6
:105C70005F926F927F928F929F92AF92BF92CF92DC
:105C8000DF92EF92FF920F931F93CF93DF93CDB7E5
:105C9000DEB71C012A013B014901A80197018601D9
:105CA00075019CEEA92EB12CA80CB91CCE8CDF8CF2
:105CB00063E0C4010E94902A8C018E899F89A88D7F
:105CC000B98D0097A105B10561F024E0AE014A5EEF
