:02000000422993
:100006008312031386160330FD00FD0B082800003B
:10001600000086120330FD00FD0B0F2800000000D3
:020026000800D0
:100028008312031306118611B8303004F000BF3074
:08003800700588000320080098
:10004000831203130611861100303102031D2A2882
:100050004030300203183128061086143008B200F0
:1000600036288610061440303002B2004030320488
:10007000F0007F30F0057008B2007008880003209F
:02008000080076
:10008200831203132C08B0002D08B10020202E0883
:0A009200B0002F08B1001420080090
:10009C0083120313061586112C088800000000003B
:0400AC000320080025
:1000B00083120313AC01AD012908AE00AF0141204A
:1000C0004030AC000030AD002908AE00AF01412047
:1000D0000610AA01AB0180302B06F00080307002C0
:1000E000031D742841302A0203187C28AC014E20DD
:0A00F000AA0A0319AB0A6B280800E6
:1000FA0083120313AA01FF30831688008312861520
:10010A00061529083F3C013003180030F00070182A
:10011A009028061091280614061895288614962801
:10012A0086100000000086160000000086120330C8
:10013A00FD00FD0B9E28000000008616000000004E
:10014A000808AA008612000000008316880183129C
:06015A002A08F000080075
:0E0160008312031321088A0020088200080081
:10016E00831203130611861106108610C030240464
:06017E00880003200800C8
:10018400831203132408AC00AD010330F0002508EA
:10019400AE00AF0170080319D328AE0CAE13FF3EB6
:1001A400CD280030AF004120012907302505F0009B
:1001B4007008F1000130F00071080319E528F00D12
:1001C4007010FF3EDF287009A8002408A9007D20D4
:1001D40070082805A700092907302505F00001301B
:1001E400A80070080319FA28A80D2810FF3EF42867
:1001F4002408A9007D2070082804A70009292608DE
:10020400003A0319D7282608013A0319EE282408CE
:10021400AC00AD010330F0002508AE00AF0170085A
:1002240003191829AE0CAE13FF3E12290030AF009B
:0A02340041202708AC004E2008000E
:10023E00B0208A110A128000840AA00A0319A10AAA
:08024E00F003031D1F29080045
:1002560083120313A4010830240203183729240843
:0A026600A9005820A40A2E29080060
:100270008312031306108610061186113F30880082
:04028000032008004F
:100284008316031788018901831287138813831641
:1002940003138801860183128601880106148614DB
:1002A400061638212B21A401B720A20140302202D6
:1002B40003186E29A3018030230203186B29230835
:1002C400A4002208A5000130A600C2200230A30722
:1002D4005D290630A20758290D30FB00AF30FC0021
:1002E400B630FD00FD0B7429FC0B7429FB0B74293B
:1002F40000002B210D30FB00AF30FC00B630FD00B8
:10030400FD0B8229FC0B8229FB0B82290000572953
:020314008A2934
:04400E00F22F000786
:00000001FF
