:1000000045C0000058C0000056C0000054C00000A9
:1000100052C0000050C000004EC000004CC00000A4
:100020004AC0000048C0000046C0000044C00000B4
:1000300042C0000040C000003EC000003CC00000C4
:100040003AC0000038C0000036C0000034C00000D4
:1000500032C0000030C000002EC000002CC00000E4
:100060002AC0000028C0000026C0000024C00000F4
:1000700022C0000020C000001EC000001CC0000004
:100080001AC0000018C0000016C0000011241FBED6
:10009000CFEFD0E1DEBFCDBF11E0A0E0B1E0ECECEE
:1000A000F1E000E00BBF02C007900D92A832B1074B
:1000B000D9F780D089C0A4CF982F907F95BB95B3F6
:1000C0009C6095BBEFECF7E03197F1F700C00000C2
:1000D00094E095BBF0E18F9FC001112485BB85B3EF
:1000E0008C6085BB8FEC97E00197F1F700C00000B2
:1000F00015BA0895982F907F95BBAB9AEFECF7E077
:100100003197F1F700C0000094E095BBF0E18F9FBC
:10011000C001112485BBAB9A8FEC97E00197F1F7F2
:1001200000C0000015BA089582E0E4DF88E2E2DF53
:100130008CE0E0DF86E0DECF0895EF92FF920F9330
:100140001F93CF93DF93EFECF7E03197F1F700C007
:100150000000FC0101900020E9F731977F01E81AC7
:10016000F90A1E141F047CF015C0F80181918F015B
:10017000A3DFC031D10511F480ECBCDF2196EC1671
:10018000FD0699F707C0FC0181918F0195DFC0E062
:10019000D0E0F4CFDF91CF911F910F91FF90EF90BE
:1001A00008958FEC97E00197F1F700C0000081E01F
:1001B000A1CF08958FEF84BB15BA81BBB5DFF1DF06
:0C01C00080E091E0BADFFFCFF894FFCFA1
:1001CC0048656C6C6F20776F726C642045486C6C62
:1001DC00646B6A64666C6B6A66646C6A6B66647387
:0801EC006C6B6A66647300008D
:00000001FF
