:1000000045C000004BC0000049C0000047C00000D0
:1000100045C0000043C0000041C000003FC00000D8
:100020003DC000003BC0000039C0000037C00000E8
:1000300035C0000033C0000031C000002FC00000F8
:100040002DC000002BC0000029C0000027C0000008
:1000500025C0000023C0000021C000001FC0000018
:100060001DC000001BC0000019C0000017C0000028
:1000700015C0000013C0000011C000000FC0000038
:100080000DC000000BC0000009C0000011241FBEFD
:10009000CFEFD0E1DEBFCDBFC8D0FBC0B1CF1816C7
:1000A00019066CF420E030E0EFECF7E03197F1F75F
:1000B00000C000002F5F3F4F82179307A9F70895F4
:1000C0008FEF87BBBB98C09A82E58DB908958FB931
:1000D000779BFECF089598B321E030E002C0220F55
:1000E000331F8A95E2F72095292328BB089598B3FA
:1000F00021E030E002C0220F331F8A95E2F7292B5E
:1001000028BB089580E0E7DF89E0E1DF8FEFDFDFE4
:1001100080E0EDDF80E0DFDF8AE0D9DF8FE0D7DF4E
:1001200080E0E5DF80E0D7DF8BE0D1DF83E0CFDF69
:1001300080E0DDDF80E0CFDF8CE0C9DF81E0C7DF7A
:1001400080E0D5CF0895CF93DF93D82FC62F80E0DE
:10015000C2DF8D2FBCDF8C2FBADF80E0C8DFDF91DC
:10016000CF910895AF92BF92CF92DF92EF92FF921C
:100170000F931F93CF93DF93CDB7DEB78C01ADB64E
:10018000BEB699233CF51195019511096AE084E00A
:10019000DADF0F2EF3E0CF2ED12CF02D1FC0C801D7
:1001A000B90150D08B018193919316161706BCF3B9
:1001B0001C141D0454F501E010E0F7016081F2E029
:1001C000EF0EF11C802FBFDF0F5F1F4FC016D1064F
:1001D000A4F71BC06894CC24C2F8D12CC601880FA8
:1001E000991F2DB73EB7281B390B0FB6F8943EBFA9
:1001F0000FBE2DBF8DB79EB701967C01101611065C
:10020000D4F6FC012AE030E0CACF0FB6F894BEBEA7
:100210000FBEADBEDF91CF911F910F91FF90EF9078
:10022000DF90CF90BF90AF90089581E087BB48DF0B
:1002300069DF88E69CEF96DF88EE93E030DF81E0AF
:1002400090E0089597FB072E16F4009406D077FDF2
:1002500008D00BD007FC05D03EF4909581959F4FB8
:100260000895709561957F4F0895AA1BBB1B51E1BE
:1002700007C0AA1FBB1FA617B70710F0A61BB70B16
:10028000881F991F5A95A9F780959095BC01CD01BB
:060290000895F894FFCF71
:00000001FF
