S00F000050726F6A6563742E737265633E
S113000045C0000061C000005FC000005DC000008A
S11300105BC0000059C0000057C0000055C000007C
S113002053C0000051C000004FC000004DC000008C
S11300304BC0000049C0000047C0000045C000009C
S113004043C0000041C000003FC000003DC00000AC
S11300503BC0000039C0000037C0000035C00000BC
S113006033C0000031C000002FC000002DC00000CC
S11300702BC0000029C0000027C0000025C00000DC
S113008023C0000021C000001FC0000011241FBEB7
S1130090CFEFD0E1DEBFCDBF10E1A0E0B1E0E2E2FE
S11300A0F2E100E00BBF02C007900D92A235B10748
S11300B0D9F720E1A2E5B0E101C01D92AA36B2074A
S11300C0E1F783D40C940F099BCF1ABA1C9A1D9A9A
S11300D08034910518F01A9A1B9802C01A981B9A3A
S11300E082E08A95F1F700C01E9A92E09A95F1F7A2
S11300F000C01E988DE08A95F1F700001E9A92E0E8
S11301009A95F1F700C089B388BB1E9892E09A953E
S1130110F1F700C09FEF9ABB90E008951E9A8DE01E
S11301208A95F1F700001E988DE08A95F1F700009A
S113013008951C9A1D988BBB82E08A95F1F700C044
S1130140EDCF08951A981B981C981D988FE38BBBCC
S1130150E5CF08951C981D988034910518F41A98D9
S11301601B9A04C01A9A1B98805491098F7399277B
S113017080648BBBD3CF08951C981D9887709927F2
S1130180886B8BBBCBCF0895CF93DF93EB01E2DF7A
S1130190CE01F2DFDF91CF910895CF92DF92EF92FB
S11301A0FF920F931F93CF93DF938C01EB016A01AE
S11301B07B01F694E794F694E794F694E794B701F8
S11301C0E3DFC114D10421F0CA94CD2891F020C0FA
S11301D0C8017BDF9E0127703327C1E0D0E002C055
S11301E0CC0FDD1F2A95E2F7C095D095C823D923FB
S11301F011C0C8016ADF9E0127703327C1E0D0E037
S113020002C0CC0FDD1F2A95E2F7C82BD92B02C000
S1130210C0E0D0E0B701C801B7DFCE018ADFDF91CB
S1130220CF911F910F91FF90EF90DF90CF900895A1
S1130230CF93DF93EC01888199818F3F2FEF920751
S1130240B1F06A817B816F3F2FEF720781F041E04B
S113025050E0A3DF8C819D818F3F2FEF920739F00F
S113026024966A817B816F3F2FEF720781F7DF91BC
S1130270CF9108951C981D981A981B98806C8BBB7D
S11302804DCF08950F931F93CF93DF9300E010E0B9
S11302900FC0B801CE0178DF80E090E04ADF2196FC
S11302A0C038D105B1F70F5F1F4F0034110519F0A5
S11302B0C0E0D0E0EECF80E090E0DCDFDF91CF91D2
S11302C01F910F9108958FEF8ABB82B91A9A1B9AD6
S11302D01F9A38DFD7CF0895982F907F95BB95B399
S11302E09C6095BBEFECF7E03197F1F700C000009C
S11302F094E095BBF0E18F9FC001112485BB85B3C9
S11303008C6085BB8FEC97E00197F1F700C000008B
S113031015BA0895982F907F95BBAB9AEFECF7E050
S11303203197F1F700C0000094E095BBF0E18F9F96
S1130330C001112485BBAB9A8FEC97E00197F1F7CC
S113034000C0000015BA089582E0E4DF88E2E2DF2D
S11303508CE0E0DF86E0DEDF80E8DCCF0895EF921A
S1130360FF920F931F93CF93DF93EFECF7E0319756
S1130370F1F700C00000FC0101900020E9F731977B
S11303807F01E81AF90A1E141F047CF015C0F80155
S113039081918F01A1DFC031D10511F480ECBADF66
S11303A02196EC16FD0699F707C0FC0181918F0197
S11303B093DFC0E0D0E0F4CFDF91CF911F910F9194
S11303C0FF90EF9008958FEC97E00197F1F700C04C
S11303D0000081E09FCF089555DF80E89AE028DF90
S11303E080916810909169108130910571F01CF42E
S11303F0892B39F008958230910559F0039761F003
S1130400089580E099E014CF089588E697E010CF2E
S1130410089580E696E00CDF35DF84E091E008CFB4
S1130420089530DFD9DF8091661090916710892B91
S113043019F088E394E0FCDE8091601090916110E3
S1130440892B19F08CE795E0F3DE8091641090918C
S11304506510892B19F08CE098E0EACE08958FE0BE
S113046090E0909363108093621090935F10809358
S11304705E1090935B1080935A101092611010924A
S11304806010109265101092641010926710109210
S11304906610109269101092681010925D101092FC
S11304A05C109ACF08958091621090916310089522
S11304B080915E1090915F10089580915A109091F0
S11304C05B1008958091681090916910039731F141
S11304D080915A1090915B108E31910584F40596A9
S11304E08F3191052CF490935B1080935A100895EA
S11304F08EE190E090935B1080935A100895809160
S113050062109091631003972AF090936310809384
S113051062100895109263101092621008958091F1
S11305206810909169100397E1F080915E109091AA
S11305305F108E31910534F0059790935F1080938E
S11305405E10089503968F3191052CF490935F10FB
S113055080935E1008958EE190E090935F108093F5
S11305605E1008958091681090916910039709F4C2
S11305703EC08091661090916710892BC9F08091DC
S113058062109091631001968F3191052CF4909331
S113059063108093621006C08EE190E09093631024
S11305A08093621010926710109266103ACF0895EB
S11305B080915E1090915F10039790935F108093E9
S11305C05E102091621030916310235031092AF09B
S11305D0309363102093621004C010926310109241
S11305E06210992324F410925F1010925E10089503
S11305F08091681090916910039711F430CF089599
S11306008091601090916110892BD9F01092611043
S11306101092601080915E1090915F1003969093F9
S11306205F1080935E10FDDE80915E1090915F10EC
S11306304F97B4F08EE190E090935F1080935E103A
S1130640089580915E1090915F1003972AF0909323
S11306505F1080935E10089510925F1010925E10E8
S11306600895E0916810F0916910E330F10509F400
S113067045C120915C1030915D102F5F3F4F309346
S11306805D1020935C10C9016AE070E014D2892BDC
S113069019F02130310531F43196F0936910E0936B
S11306A06810BFDE8091601090916110892B71F009
S11306B080915E1090915F1005972AF090935F10DF
S11306C080935E1003C020E030E007C020915E10EC
S11306D030915F102A3031055CF480916210909162
S11306E063100597BAF51092631010926210F2C06D
S11306F02F30310584F48091621090916310039738
S11307002AF0909363108093621028C010926310B3
S113071010926210DFC02531310504F1809162101E
S11307209091631003968F3191052CF4909363108C
S11307308093621013C08EE190E0909363108093D5
S1130740621080915A1090915B108A3091050CF0E0
S1130750D1C0B9C0909363108093621080915A10F5
S113076090915B108A3091058CF440916210509105
S11307706310455051095093631040936210552300
S113078084F510926310109262102BC08F30910583
S11307908CF44091621050916310435051092AF037
S11307A050936310409362101CC010926310109217
S11307B0621017C085319105A4F0409162105091E8
S11307C063104D5F5F4F4F3151052CF4509363100C
S11307D04093621006C04EE150E050936310409382
S11307E0621005972AF090935B1080935A1004C00E
S11307F010925B1010925A10C90105972AF0909339
S11308005F1080935E1004C010925F1010925E100F
S11308108091661090916710892B81F0809162100D
S1130820909163100A972AF090936310809362105A
S113083005C0109263101092621006C0809162107D
S113084090916310892B41F483E090E090936910B8
S113085080936810C1CD08959CD16AE070E02BD1DB
S1130860892B39F481E090E09093671080936610AF
S1130870D8DD8FD16AE070E01ED1892B39F481E094
S113088090E09093611080936010CBDD82D16AE098
S113089070E011D18130910541F481E090E09093B2
S11308A0651080936410BDCD089505973CF1809147
S11308B0641090916510892B09F1109265101092C3
S11308C06410AFCD089549E150E050936310409314
S11308D0621087CF80915A1090915B108A309105F5
S11308E00CF054CF4ECF409162105091631043509E
S11308F0510956CF8F309105B4F35CCF089517BAE0
S11309000895B39B0DC08091581090915910019790
S113091071F081E090E090935910809358100895FD
S1130920109259101092581080E090E0089580E0E1
S113093090E00895B29B0DC080915610909157108D
S1130940019771F081E090E09093571080935610D6
S11309500895109257101092561080E090E0089578
S113096080E090E00895B19B0DC080915410909167
S11309705510019771F081E090E0909355108093A9
S113098054100895109255101092541080E090E085
S1130990089580E090E00895B49B0DC080915210BA
S11309A090915310019771F081E090E0909353106F
S11309B0809352100895109253101092521080E0B8
S11309C090E0089580E090E00895CF93DF93CDB751
S11309D0DEB761970FB6F894DEBF0FBECDBF8FEFC1
S11309E084BB81BBB1DC6FDC8ADF39DD8FE59AEE35
S11309F00197F1F700C0000001E010E00F2EF4E1D0
S1130A00AF2EB12CF02D0F2EFFE04F2EF02D4E0106
S1130A1093E0890E911C0F2EF0E4CF2EF0E1DF2E2F
S1130A20F02DFE0131967F010FC08FE59AEE0197FC
S1130A30F1F700C000000F5F1F4F043F91E019075A
S1130A401CF00FDE00E010E05CDF892B09F03ADDDA
S1130A50A3DF892B09F0CCDD86DF892B09F082DD49
S1130A6069DF892B09F05BDDC801B50124D0892B2E
S1130A70E1F61A821982F401842D11928A95E9F71C
S1130A80A2DC16DD582E392E18DD782E692E0BDDEA
S1130A903F925F926F927F929F938F93DF92CF9258
S1130AA0FF92EF9284D0C7015ADC0FB6F894DEBFF0
S1130AB00FBECDBFBACF97FB072E16F4009406D015
S1130AC077FD08D00BD007FC05D03EF490958195B6
S1130AD09F4F0895709561957F4F0895AA1BBB1B86
S1130AE051E107C0AA1FBB1FA617B70710F0A61B2A
S1130AF0B70B881F991F5A95A9F780959095BC014B
S1130B00CD0108958F929F92AF92BF92CF92DF92C0
S1130B10EF92FF92CF93DF93EC01688179818A8110
S1130B209B81611571058105910521F464E279EDDC
S1130B308BE597E02DE133EF41E050E013D3490119
S1130B405A019B01AC01A7EAB1E428D36B017C01F3
S1130B50ACEEB4EFA50194012DD3DC01CB018C0DD7
S1130B609D1DAE1DBF1DB7FF03C00197A109B0486D
S1130B7088839983AA83BB839F77DF91CF91FF906A
S1130B80EF90DF90CF90BF90AF909F908F9008959B
S1130B90B9CF80E091E0B6CFA0E0B0E0809300014F
S1130BA090930101A0930201B093030108950F9360
S1130BB01F93CF93DF93CDB7DEB72E970FB6F8947C
S1130BC0DEBF0FBECDBF0D891E8986E08C831A83DC
S1130BD009838FEF9FE79E838D83AE01475E5F4F4E
S1130BE06F89788DCE01019610D0EF81F885E00FE2
S1130BF0F11F10822E960FB6F894DEBF0FBECDBF44
S1130C00DF91CF911F910F9108952F923F924F92B0
S1130C105F926F927F928F929F92AF92BF92CF9288
S1130C20DF92EF92FF920F931F93CF93DF93CDB791
S1130C30DEB72B970FB6F894DEBF0FBECDBF6C01A5
S1130C407B018A01FC0117821682838181FFBFC167
S1130C50CE0101963C01F6019381F70193FD859144
S1130C6093FF81917F01882309F4ADC1853239F462
S1130C7093FD859193FF81917F01853221F4B60123
S1130C8090E0D6D1E8CF912C212C312CFFE1F31543
S1130C90D8F08B3279F038F4803279F08332A1F4D1
S1130CA0232D20611DC08D3261F0803369F4232D22
S1130CB0216016C0832D8260382EE32DE4603E2E21
S1130CC02AC0F32DF8601DC037FC2DC020ED280F7D
S1130CD02A3040F08E32B9F436FC75C1232D2064DD
S1130CE0322E19C036FE06C08AE0989E200D1124CB
S1130CF0922E11C0EAE02E9E200D1124222EF32DF7
S1130D00F0623F2E08C08C3621F4832D8068382E83
S1130D1002C0883641F4F70193FD859193FF8191D8
S1130D207F018111B3CF982F9F7D9554933028F480
S1130D300C5F1F4F9FE399830DC0833631F08337D7
S1130D4071F0833509F055C020C0F8018081898392
S1130D500E5F1F4F88248394912C530112C02801E5
S1130D60F2E04F0E511CF801A080B18036FE03C0A2
S1130D70692D70E002C06FEF7FEFC5014ED14C01C9
S1130D808201F32DFF773F2E15C0280122E0420E89
S1130D90511CF801A080B18036FE03C0692D70E0BB
S1130DA002C06FEF7FEFC5012DD14C01F32DF06828
S1130DB03F2E820133FC19C0822D90E088169906DB
S1130DC0A0F4B60180E290E033D12A94F5CFF50186
S1130DD037FC859137FE81915F01B60190E028D1FF
S1130DE021102A9421E0821A91088114910479F740
S1130DF0E1C0843611F0893639F5F80137FE07C0B1
S1130E0060817181828193810C5F1F4F08C0608172
S1130E107181072E000C880B990B0E5F1F4FF32D69
S1130E20FF763F2E97FF09C0909580957095619548
S1130E307F4F8F4F9F4FF0683F2E2AE030E0A30191
S1130E4033D1882E861844C0853731F4232D2F7E64
S1130E50B22E2AE030E025C0932D997FB92E8F362B
S1130E60C1F018F4883579F0AEC0803719F08837AE
S1130E7021F0A9C0E92FE061BE2EB4FE0DC0FB2D08
S1130E80F460BF2E09C034FE0AC0292F2660B22E9A
S1130E9006C028E030E005C020E130E002C020E1D7
S1130EA032E0F801B7FE07C06081718182819381CD
S1130EB00C5F1F4F06C06081718180E090E00E5F7F
S1130EC01F4FA301F1D0882E8618FB2DFF773F2EEC
S1130ED036FE0DC0232D2E7FA22E891458F434FE25
S1130EE00BC032FC09C0832D8E7EA82E05C0B82C01
S1130EF0A32C03C0B82C01C0B92CA4FE0FC0FE0162
S1130F00E80DF11D8081803321F49A2D997EA92E5C
S1130F1009C0A2FE06C0B394B39404C08A2D867897
S1130F2009F0B394A3FC10C0A0FE06C0B21480F470
S1130F30280C922C9B180DC0B21458F4B60180E210
S1130F4090E076D0B394F8CFB21418F42B1802C002
S1130F50982C212CA4FE0FC0B60180E390E068D049
S1130F60A2FE16C0A1FC03C088E790E002C088E599
S1130F7090E0B6010CC08A2D867851F0A1FE02C023
S1130F808BE201C080E2A7FC8DE2B60190E050D074
S1130F90891430F4B60180E390E04AD09A94F8CFF3
S1130FA08A94F301E80DF11D8081B60190E040D0F0
S1130FB08110F6CF222009F44ECEB60180E290E0F3
S1130FC037D02A94F7CFF6018681978102C08FEF3C
S1130FD09FEF2B960FB6F894DEBF0FBECDBFDF9107
S1130FE0CF911F910F91FF90EF90DF90CF90BF9022
S1130FF0AF909F908F907F906F905F904F903F90B5
S11310002F900895FC010590615070400110D8F7AD
S1131010809590958E0F9F1F0895FC01615070403C
S113102001900110D8F7809590958E0F9F1F089519
S11310300F931F93CF93DF93FB01238121FD03C003
S11310408FEF9FEF2CC022FF16C046815781248169
S113105035814217530744F4A081B1819D012F5F6C
S11310603F4F318320838C93268137812F5F3F4FFD
S11310703783268314C08B01EC01FB010084F185C6
S1131080E02D0995892BE1F6D80116968D919C9156
S11310901797019617969C938E931697CE01DF911E
S11310A0CF911F910F910895FA01AA27283051F189
S11310B0203181F1E8946F936E7F6E5F7F4F8F4F85
S11310C09F4FAF4FB1E03ED0B4E03CD0670F781FE4
S11310D0891F9A1FA11D680F791F8A1F911DA11DC9
S11310E06A0F711D811D911DA11D20D009F4689402
S11310F03F912AE0269F11243019305D3193DEF6AA
S1131100CF010895462F4770405D4193B3E00FD05F
S1131110C9F7F6CF462F4F70405D4A3318F0495D4A
S113112031FD4052419302D0A9F7EACFB4E0A6952D
S11311309795879577956795BA95C9F7009761054F
S1131140710508959B01AC010A2E069457954795A5
S113115037952795BA95C9F7620F731F841F951F9A
S1131160A01D0895052E97FB16F400940FD057FD8B
S113117005D024D007FC02D046F408C05095409511
S1131180309521953F4F4F4F5F4F0895909580952F
S1131190709561957F4F8F4F9F4F089531D0A59FD4
S11311A0900DB49F900DA49F800D911D112408955E
S11311B0B7FFF4CFF3DF821B930B0895A1E21A2E3D
S11311C0AA1BBB1BFD010DC0AA1FBB1FEE1FFF1FE7
S11311D0A217B307E407F50720F0A21BB30BE40B37
S11311E0F50B661F771F881F991F1A9469F760957E
S11311F07095809590959B01AC01BD01CF01089538
S1131200A29FB001B39FC001A39F700D811D112443
S1131210911DB29F700D811D1124911D0895F894A4
S1051220FFCFFA
S11312220100000029001100290012002900130006
S113123229001400290015002900160029001700AE
S1131242290018002900190029001A0029001B008E
S113125229001C0029001D0029001E0029001F006E
S1131262290020002A0011002A0020002B0011006E
S11312722B0020002C0011002C0020002D00110056
S11312822D0020002E0011002E0020002F0011003E
S11312922F00200030001100300020003100110026
S11312A2310020003200110032002000330011000E
S11312B233002000340011003400200035001100F6
S11312C235002000360011003600200037000400EB
S11312D23700050037000600370007003700080012
S11312E23700090037000A0037000B0037000C00F2
S11312F237000D0037000E0037000F0037001000D2
S11313023700110037002000370021003700220087
S11313123700230037002400370025003700260059
S113132237002700370028003700290037002A0039
S113133237002B0037002C0037002D0037002E0019
S113134237002F00370030003700310037003200F9
S113135237003300370034003700350037003600D9
S113136237003700370038003700390037003A00B9
S113137237003B0037003C0037003D0038000400D2
S113138238003D003900040039003D003A000400F1
S11313923A003D003B0004003B003D003C000400D9
S11313A23C003D003D0004003D003D003E000400C1
S11313B23E003D003F0004003F003D0040000400A9
S11313C240003D004100040041003D004200040091
S11313D242003D004300040043003D004400040079
S11313E244003D004500040045003D004600040061
S11313F246003D0047000400470005004700060080
S113140247000700470008004700090047000A0098
S113141247000B0047000C0047000D0047000E0078
S113142247000F004700100047001100470020004A
S11314324700210047002200470023004700240000
S113144247002500470026004700270047002800E0
S11314524700290047002A0047002B0047002C00C0
S113146247002D0047002E0047002F0047003000A0
S11314724700310047003200470033004700340080
S11314824700350047003600470037004700380060
S11314924700390047003A0047003B0047003C0040
S11314A247003D0048001100480020004900110097
S11314B2490020004A0011004A0020004B0011009C
S11314C24B0020004C0011004C0020004D00110084
S11314D24D0020004E0011004E0020004F0011006C
S11314E24F00200050001100500020005100110054
S11314F2510020005200110052002000530011003C
S11315025300200054001100540020005500110023
S11315125500200056001100560012005600130018
S11315225600140056001500560016005600170007
S1131532560018005600190056001A0056001B00E7
S113154256001C0056001D0056001E0056001F00C7
S113155256002000FFFFFFFF02001C0002002400CF
S113156203001B0003001C000300240003002500E9
S113157204001E0004001F000400200004002100D7
S11315820400220005001D0005001E0005001F00C6
S113159205002000050021000500220005002300AB
S11315A20500240006001D0006001E0006001F00A0
S11315B20600210006002200060023000600240083
S11315C207001D0007001E0007001F00070021007E
S11315D2070022000700230008001D0008001E0067
S11315E208001F0008002000080021000800220053
S11315F2080023000800240009001D0009001E0041
S113160209001F000900200009002100090022002E
S113161209002300090024000A001D000A001E001C
S11316220A001F000A0021000A0022000A00230007
S11316320B001D000B001E000B001F000B002100FD
S11316420B0022000B0023000B0024000C001D00E1
S11316520C001E000C001F000C0020000C002100D6
S11316620C0022000C0023000C0024000D001E00BC
S11316720D001F000D0020000D0021000D002200AE
S11316820E001B000E001C000E0024000E0025009C
S11316920F001C000F002400FFFFFFFF270026009D
S11316A22700270027002E0027002F0028002400EF
S11316B228002500280028002800290028002D00E1
S11316C22800300029002B0029002C0029002D00BD
S11316D2290030002A002A002A002D002A003100A5
S11316E22B0022002B0023002B0027002B002800B4
S11316F22B002A002B002D002B0031002C0020008F
S11317022C0021002C0024002C0025002C00270092
S11317122C0029002C002A002C002D002C00310062
S11317222D0027002D002A002D002D002D00310050
S11317322E0028002E002C002E0031002F0028003D
S11317422F0029002F002A002F002B002F00300029
S1131752300025003000260030002B0030002F001E
S11317623100230031002400310027003100280019
S113177231002C0031002D0031002E00FFFFFFFF4D
S113178238002A0038002B0038002C0038002D00C5
S113179238002E003900290039002F003A002800B1
S11317A23A0030003B0025003B0026003B002700A6
S11317B23B0030003C0024003C002A003C002D0089
S11317C23C0030003D0023003D002A003D002D0076
S11317D23D0030003D0031003E0023003E00260063
S11317E23E002A003E002D003E0030003F00230050
S11317F23F002B003F002C003F003000400023003C
S1131802400030004100230041003000410031001B
S1131812420023004200260042003000430024001C
S11318224300300044002500440026004400270001
S113183244002800440029004400300045002500EB
S1131842450027004500290045002A0045002F00D5
S113185246002500460027004600290046002B00CA
S113186246002C0046002D0046002E0047002500AD
S113187247002700470029004800260048002700A7
S113188248002800FFFFFFFF39002C0039002E001A
S11318923A002B003A002D003A002F003B002A00A8
S11318A23B002B003B002D003B002F003C00290095
S11318B23C002B003C002D003C002F003C0030007B
S11318C23D0028003D002A003D002C003D002E0072
S11318D23D0031003E0028003E0031003F00280058
S11318E23F0029003F00310040002700400028004B
S11318F24000290040002B00400031004100280034
S1131902410031004200290042002F004200300011
S113191243002A0043002B0043002C0043002D0007
S113192243002F0044002E00FFFFFFFF4B00220064
S113193247001C0047001D00470021004700220009
S113194248001C00480020004800220049001C00F6
S113195249001F00490022004A001C004A001F00DF
S11319624A0022004B001C004B001E004C001C00CD
S11319724C001D004C0021004C0022004F001C00B2
S11319824F001D004F0021004F00220050001C0098
S1131992500020005000220051001C0051001F0082
S11319A25100220052001C0052001F00520022006B
S11319B253001C0053001E005300220054001C005C
S11319C254001D00540021005400220057001C0042
S11319D257001D00570021005700220058001C0028
S11319E2580020005800220059001C0059001F0012
S11319F2590022005A001C005A001F005A002200FB
S1131A025B001C005B001E005B0022005C001C00EB
S1131A125C001D005C0021005C002200FFFFFFFF50
S1131A223A002D003A002E003A002F003A0030000E
S1131A323B002B003B002C003B002D003B00300000
S1131A423B0031003B0032003C0029003C002A00EC
S1131A523C0030003C0031003C0032003C003300CA
S1131A623D0028003D0029003D002A003D002B00D6
S1131A723D0031003D0032003D0033003D003400A2
S1131A823E0027003E0028003E0029003E002A00B6
S1131A923E002B003E002E003E002F003E00300090
S1131AA23E0034003F0026003F0028003F0029008A
S1131AB23F002A003F002D003F002E003F002F0070
S1131AC23F0030003F0031003F0035004000260057
S1131AD240002D0040002E0040002F004000300046
S1131AE240003100400035004100260041002D0035
S1131AF241002E0041002F0041003000410031001E
S1131B02410035004200260042002E0042002F0010
S1131B124200300042003500430027004300290000
S1131B2243002A0043002B004300340044002800F1
S1131B324400290044002A0044002B0044002C00E5
S1131B4244003000440031004400320044003400B8
S1131B524500290045002A0045002B0045002C00C1
S1131B6245002F0045003000450031004500320099
S1131B724500330046002B0046002C0046002F008F
S1131B8246003000460031004600320047002D0076
S1131B9247002E0047002F0047003000FFFFFFFFE1
S1131BA200001600010016000200160003001600D1
S1131BB204001600050016000600160007001600B1
S1131BC20800160009000C0009000D0009000E00AF
S1131BD2090016000A000A000A000B000A000F009E
S1131BE20A0016000B0009000B0010000B0016007F
S1131BF20C0008000C0009000C0010000C00160078
S1131C020D0008000D000A000D000C000D0010006C
S1131C120D0016000E0007000E000B000E0010004F
S1131C220E0016000F0007000F0008000F000A0044
S1131C320F000C000F0010000F0016001000070028
S1131C421000090010001000100016001100060018
S1131C521100080011000A0011000C00110010000C
S1131C6211001600120006001200070012000B00F9
S1131C7212001000120016001300060013000800E0
S1131C8213000A0013000C001300100013001600C6
S1131C9214000600140009001400100014001600B9
S1131CA2150006001500080015000A0015000C00B6
S1131CB21500100015001600160006001600070095
S1131CC216000B001600100016001600170006007E
S1131CD21700080017000A0017000C001700100074
S1131CE2170016001800060018000900180010005A
S1131CF218001600190007001900080019000A004C
S1131D0219000C0019001000190016001A0007002F
S1131D121A000B001A0010001A0016001B0007001C
S1131D221B000A001B000C001B0010001B00160005
S1131D321C0008001C0009001C0010001C001600F6
S1131D421D0008001D0010001D0016001E000900E1
S1131D521E0010001E0016001F000A001F000B00C8
S1131D621F000F001F00160020000C0020000D00B1
S1131D7220000E002000160021001600220016008A
S1131D822300160024001600250016002600160063
S1131D922700160028001600290016002A00000059
S1131DA22A0001002A0002002A0003002A0004007B
S1131DB22A0005002A0006002A0007002A0008005B
S1131DC22A0009002A000A002A000B002A000C003B
S1131DD22A000D002A000E002A000F002A0010001B
S1131DE22A0011002A0012002A0013002A001400FB
S1131DF22A0015002A0016002B0016002C001600DB
S1131E022D0016002E0016002F00160030001600BA
S1131E12310016003200160033001600340016009A
S1131E223500160036001600370016003800090087
S1131E3238000A0038000B0038000C0038000D008E
S1131E4238001600390007003900080039000E0076
S1131E5239000F00390016003A0006003A00070064
S1131E623A000F003A0010003A0016003B00050049
S1131E723B0008003B000E003B0011003B00160033
S1131E823C0005003C0009003C000A003C000B0039
S1131E923C000C003C000D003C0011003C0016000C
S1131EA23D0004003D0012003D0016003E00040007
S1131EB23E0012003E0016003F0004003F001200E4
S1131EC23F001600400004004000120040001600CB
S1131ED241000400410012004100160042000500C6
S1131EE24200090042000A0042000B0042000C00BA
S1131EF242000D004200110042001600430005009A
S1131F024300080043000E00430011004300160082
S1131F12440006004400070044000F00440010007F
S1131F2244001600450007004500080045000E0065
S1131F3245000F00450016004600090046000A004D
S1131F4246000B0046000C0046000D004600160039
S1131F524700160048001600490016004A00160001
S1131F624B0016004C0016004D0016004E001600E1
S1131F724F001600500016005100160052001600C1
S1131F8253001600540016005500000055000100CD
S1131F9255000200550003005500040055000500D9
S1131FA255000600550007005500080055000900B9
S1131FB255000A0055000B0055000C0055000D0099
S1131FC255000E0055000F00550010005500110079
S1131FD25500120055001300550014005500150059
S1131FE25500160056001600570016005800160039
S1131FF2590016005A0016005B0016005C00160019
S11320025D0016005E0016005F00160060001600F8
S11320126100090061000A0061000B0061000C000C
S113202261000D006100160062000A0062000B00EC
S113203262000C006200160063000A0063000B00D9
S113204263000C006300160064000A0064000B00C5
S113205264000C00640016006500080065000900B5
S113206265000A0065000B0065000C0065000D00A8
S113207265000E00650016006600090066000D008A
S1132082660016006700090067000A0067000B007B
S113209267000D00670016006800090068000D0063
S11320A2680016006900090069000A0069000B0053
S11320B269000D00690016006A0009006A000D003B
S11320C26A0016006B0009006B000A006B000B002B
S11320D26B000D006B0016006C0009006C000D0013
S11320E26C0016006D0009006D000D006D001600F5
S11320F26E000A006E000B006E000C006E001600EB
S11321026F000B006F00160070000B0070001600C9
S113211271000B007100160072000B0072001600B1
S113212273000B007300160074000B007400160099
S11321327500160076001600770016007800160067
S1132142790016007A0016007B0016007C00160047
S11321527D0016007E0016007F001600FFFFFFFFC1
S1132162486520256420487520256420486125643B
S1052172000067
S9030000FC
