S00F000050726F6A6563742E737265633E
S113000045C000004BC0000049C0000047C00000CC
S113001045C0000043C0000041C000003FC00000D4
S11300203DC000003BC0000039C0000037C00000E4
S113003035C0000033C0000031C000002FC00000F4
S11300402DC000002BC0000029C0000027C0000004
S113005025C0000023C0000021C000001FC0000014
S11300601DC000001BC0000019C0000017C0000024
S113007015C0000013C0000011C000000FC0000034
S11300800DC000000BC0000009C0000011241FBEF9
S1130090CFEFD0E1DEBFCDBF1ED121C1B1CF1ABA9F
S11300A01C9A1D9A8034910518F01A9A1B9802C064
S11300B01A981B9A82E08A95F1F700C01E9A92E082
S11300C09A95F1F700C01E988DE08A95F1F700002B
S11300D01E9A92E09A95F1F700C089B388BB1E98E6
S11300E092E09A95F1F700C09FEF9ABB90E00895D3
S11300F01E9A8DE08A95F1F700001E988DE08A958E
S1130100F1F7000008951C9A1D988BBB82E08A9534
S1130110F1F700C0EDCF08951A981B981C981D980C
S11301208FE38BBBE5CF08951C981D98803491050F
S113013018F41A981B9A04C01A9A1B9880549109AF
S11301408F73992780648BBBD3CF08951C981D9817
S113015087709927886B8BBBCBCF0895CF93DF93A0
S1130160EB01E2DFCE01F2DFDF91CF910895CF9270
S1130170DF92EF92FF920F931F93CF93DF938C0143
S1130180EB016A017B01F694E794F694E794F69404
S1130190E794B701E3DFC114D10421F0CA94CD2858
S11301A091F020C0C8017BDF9E0127703327C1E096
S11301B0D0E002C0CC0FDD1F2A95E2F7C095D095A0
S11301C0C823D92311C0C8016ADF9E0127703327D1
S11301D0C1E0D0E002C0CC0FDD1F2A95E2F7C82BA6
S11301E0D92B02C0C0E0D0E0B701C801B7DFCE010F
S11301F08ADFDF91CF911F910F91FF90EF90DF90F5
S1130200CF900895CF93DF93EC01BC0180E090E0A0
S1130210A5DFBE0180E490E0A1DF1A98C1E4D0E03C
S113022080E090E070DF2197D9F7DF91CF910895B6
S1130230CF93DF93C0E0D0E0CE01E4DF2196C83055
S1130240D105D1F7DF91CF9108951C981D981A9884
S11302501B98806C8BBB4CCF08950F931F93CF9347
S1130260DF938FEF8ABB82B987BB1A9A1B9A1F9AB6
S113027053DFDEDF00E010E00FC0B801CE016EDF17
S113028080E090E040DF2196C038D105B1F70F5FE0
S11302901F4F0034110519F0C0E0D0E0EECF80E02C
S11302A090E0D3DF00E010E00EC041E050E0B80180
S11302B0CE015DDF2296C038D105B9F70E5F1F4F1E
S11302C00034110519F0C0E0D0E0EFCFDF91CF91F9
S11302D01F910F910895C1DF80E090E00895F89494
S10502E0FFCF4A
S9030000FC
